:100000000C942A000C9447000C9447000C94470071
:100010000C9447000C9447000C9447000C94470044
:100020000C9447000C9447000C9447000C94470034
:100030000C9447000C9447000C9447000C94470024
:100040000C9447000C9447000C9447000C94470014
:100050000C94470011241FBECFE5D8E0DEBFCDBF12
:1000600010E0A0E6B0E0ECE3F9E102C005900D92EB
:10007000A036B107D9F710E0A0E6B0E001C01D92AC
:10008000A036B107E1F70E94840B0C949C0C0C94F1
:100090000000CF93DF930F92CDB7DEB789838BE358
:1000A00090E02BE330E0F9012081322F307F29816D
:1000B00022952F70232BFC0120830F90DF91CF918D
:1000C0000895CF93DF930F92CDB7DEB789838BE38B
:1000D00090E02BE330E0F9012081322F307F29813D
:1000E0002F70232BFC0120830F90DF91CF91089577
:1000F000CF93DF930F92CDB7DEB789838BE390E088
:100100002BE330E0F90120812064FC0120838BE3A4
:1001100090E02BE330E0F90120812068FC0120838E
:1001200089810E9449008BE390E02BE330E0F901E4
:1001300020812F7BFC0120838BE390E02BE330E0D8
:10014000F90120812064FC01208389810E946100E3
:100150008BE390E02BE330E0F90120812F7BFC0161
:1001600020838BE390E02BE330E0F90120812F7BAB
:10017000FC0120838BE390E02BE330E0F901208148
:100180002F7BFC0120830F90DF91CF910895CF93B7
:10019000DF930F92CDB7DEB789838BE390E02BE33B
:1001A00030E0F90120812064FC0120838BE390E0A2
:1001B0002BE330E0F9012081322F307F29812F702D
:1001C000232BFC0120838BE390E02BE330E0F9014B
:1001D00020812F7BFC0120830F90DF91CF91089528
:1001E000CF93DF9300D0CDB7DEB79A8389830BC05E
:1001F00089819A81FC0180810E94780089819A819D
:1002000001969A83898389819A81FC018081882360
:1002100079F70F900F90DF91CF9108950F931F936F
:10022000CF93DF93CDB7DEB7C65CD0400FB6F8945E
:10023000DEBF0FBECDBF80E090E0A0E7B1E48B83CE
:100240009C83AD83BE836B817C818D819E8120E008
:1002500030E04AE755E40E94110CDC01CB018F83AA
:100260009887A987BA8711E06F81788589859A85F3
:1002700020E030E040E85FE30E94900B88230CF020
:1002800010E0112329F081E090E09C878B8746C025
:1002900011E06F81788589859A8520E03FEF4FE7EF
:1002A00057E40E940D0C18160CF010E0112361F1B8
:1002B0006B817C818D819E8120E030E040E251E4C1
:1002C0000E94110CDC01CB01BC01CD010E94940BFA
:1002D000DC01CB019C878B8712C080E991E09E876F
:1002E0008D878D859E858C01C8010197F1F78C0162
:1002F0001E870D878B859C8501979C878B878B85B7
:100300009C85009751F717C06F81788589859A85FC
:100310000E94940BDC01CB019C878B878B859C858D
:10032000988B8F878F8598898C01F8013197F1F729
:100330008F01188B0F871A82198288C083E00E9470
:10034000C70080E090E0A0EAB0E4898B9A8BAB8B89
:10035000BC8B69897A898B899C8920E030E04AE7E7
:1003600055E40E94110CDC01CB018D8B9E8BAF8B71
:10037000B88F11E06D897E898F89988D20E030E0FB
:1003800040E85FE30E94900B88230CF010E01123FB
:1003900029F081E090E09A8F898F46C011E06D8945
:1003A0007E898F89988D20E03FEF4FE757E40E94C8
:1003B0000D0C18160CF010E0112361F169897A898F
:1003C0008B899C8920E030E040E251E40E94110CCE
:1003D000DC01CB01BC01CD010E94940BDC01CB01FF
:1003E0009A8F898F12C080E991E09C8F8B8F8B8DC3
:1003F0009C8D8C01C8010197F1F78C011C8F0B8F2C
:10040000898D9A8D01979A8F898F898D9A8D009702
:1004100051F717C06D897E898F89988D0E94940B42
:10042000DC01CB019A8F898F898D9A8D9E8F8D8F5C
:100430008D8D9E8D8C01F8013197F1F78F011E8F04
:100440000D8F89819A8101969A83898389819A8106
:10045000833091050CF472CF82E00E94C70080E0E7
:1004600090E0A0EAB0E48F8F98A3A9A3BAA36F8D00
:1004700078A189A19AA120E030E04AE755E40E94E2
:10048000110CDC01CB018BA39CA3ADA3BEA311E097
:100490006BA17CA18DA19EA120E030E040E85FE34C
:1004A0000E94900B88230CF010E0112329F081E0CA
:1004B00090E098A78FA346C011E06BA17CA18DA10D
:1004C0009EA120E03FEF4FE757E40E940D0C181665
:1004D0000CF010E0112361F16F8D78A189A19AA130
:1004E00020E030E040E251E40E94110CDC01CB013D
:1004F000BC01CD010E94940BDC01CB0198A78FA316
:1005000012C080E991E09AA789A789A59AA58C01D4
:10051000C8010197F1F78C011AA709A78FA198A527
:10052000019798A78FA38FA198A5009751F717C09F
:100530006BA17CA18DA19EA10E94940BDC01CB013B
:1005400098A78FA38FA198A59CA78BA78BA59CA5E7
:100550008C01F8013197F1F78F011CA70BA782E0FE
:100560000E94C70080E090E0A0EAB0E48DA79EA7BB
:10057000AFA7B8AB6DA57EA58FA598A920E030E008
:100580004AE755E40E94110CDC01CB0189AB9AAB20
:10059000ABABBCAB11E069A97AA98BA99CA920E0FF
:1005A00030E040E85FE30E94900B88230CF010E0FD
:1005B000112329F081E090E09EAB8DAB46C011E0A5
:1005C00069A97AA98BA99CA920E03FEF4FE757E4DE
:1005D0000E940D0C18160CF010E0112361F16DA5AE
:1005E0007EA58FA598A920E030E040E251E40E946A
:1005F000110CDC01CB01BC01CD010E94940BDC018C
:10060000CB019EAB8DAB12C080E991E098AF8FAB70
:100610008FA998AD8C01C8010197F1F78C0118AF33
:100620000FAB8DA99EA901979EAB8DAB8DA99EA9FD
:10063000009751F717C069A97AA98BA99CA90E94B4
:10064000940BDC01CB019EAB8DAB8DA99EA99AAF1B
:1006500089AF89AD9AAD8C01F8013197F1F78F011F
:100660001AAF09AF88E00E94C70080E090E0A0EADE
:10067000B0E48BAF9CAFADAFBEAF8E01015C1F4F3E
:100680006BAD7CAD8DAD9EAD20E030E04AE755E42A
:100690000E94110CDC01CB01F80180839183A283BD
:1006A000B383CE01CF9611E0FC016081718182811C
:1006B000938120E030E040E85FE30E94900B8823C4
:1006C0000CF010E0112349F0CE018D5B9F4F21E02B
:1006D00030E0FC01318320836EC0CE01CF9611E063
:1006E000FC01608171818281938120E03FEF4FE7BF
:1006F00057E40E940D0C18160CF010E0112309F4B9
:1007000049C06BAD7CAD8DAD9EAD20E030E040E2E8
:1007100051E40E94110CDC01CB018E010D5B1F4FD7
:10072000BC01CD010E94940BDC01CB01F801918347
:10073000808327C0CE018B5B9F4F20E931E0FC0115
:1007400031832083CE018B5B9F4FFC01808191819F
:100750008C01C8010197F1F78C01CE018B5B9F4F93
:10076000FC0111830083CE018D5B9F4F9E012D5BA9
:100770003F4FF9012081318121503040FC0131830C
:100780002083CE018D5B9F4FFC018081918100977A
:1007900089F62EC08E010D5B1F4FCE01CF96FC0156
:1007A00060817181828193810E94940BDC01CB0175
:1007B000F80191838083CE01895B9F4F9E012D5B61
:1007C0003F4FF90120813181FC0131832083CE012B
:1007D000895B9F4FFC01808191818C01C801019749
:1007E000F1F78C01CE01895B9F4FFC0111830083DF
:1007F00080E00E94C7009E01275B3F4F80E090E0B1
:10080000A0EAB0E4F90180839183A283B3838E01CF
:10081000035B1F4FCE01875B9F4FFC01608171819D
:100820008281938120E030E04AE755E40E94110C78
:10083000DC01CB01F80180839183A283B383CE01D5
:10084000835B9F4F11E0FC01608171818281938104
:1008500020E030E040E85FE30E94900B88230CF03A
:1008600010E0112349F0CE018F5A9F4F21E030E074
:10087000FC013183208374C0CE01835B9F4F11E064
:10088000FC01608171818281938120E03FEF4FE71D
:1008900057E40E940D0C18160CF010E0112309F417
:1008A0004DC0CE01875B9F4FFC01608171818281C9
:1008B000938120E030E040E251E40E94110CDC0121
:1008C000CB018E010F5A1F4FBC01CD010E94940B2A
:1008D000DC01CB01F8019183808327C0CE018D5AC2
:1008E0009F4F20E931E0FC0131832083CE018D5AF6
:1008F0009F4FFC01808191818C01C8010197F1F724
:100900008C01CE018D5A9F4FFC0111830083CE01D3
:100910008F5A9F4F9E012F5A3F4FF90120813181FD
:1009200021503040FC0131832083CE018F5A9F4FEC
:10093000FC0180819181009789F62FC08E010F5AAA
:100940001F4FCE01835B9F4FFC01608171818281CB
:1009500093810E94940BDC01CB01F8019183808389
:10096000CE018B5A9F4F9E012F5A3F4FF901208194
:100970003181FC0131832083CE018B5A9F4FFC01D2
:10098000808191818C01C8010197F1F78C01CE0122
:100990008B5A9F4FFC011183008388E00E94C7009F
:1009A0009E01295A3F4F80E090E0A0EAB0E4F901AF
:1009B00080839183A283B3838E01055A1F4FCE019A
:1009C000895A9F4FFC01608171818281938120E06F
:1009D00030E04AE755E40E94110CDC01CB01F8013C
:1009E00080839183A283B383CE01855A9F4F11E008
:1009F000FC01608171818281938120E030E040E8D8
:100A00005FE30E94900B88230CF010E0112349F063
:100A1000CE01815A9F4F21E030E0FC0131832083D9
:100A200074C0CE01855A9F4F11E0FC016081718135
:100A30008281938120E03FEF4FE757E40E940D0C45
:100A400018160CF010E0112309F44DC0CE01895A9C
:100A50009F4FFC01608171818281938120E030E0B1
:100A600040E251E40E94110CDC01CB018E01015ADD
:100A70001F4FBC01CD010E94940BDC01CB01F8019A
:100A80009183808327C0CE018F599F4F20E931E0A9
:100A9000FC0131832083CE018F599F4FFC0180815F
:100AA00091818C01C8010197F1F78C01CE018F591A
:100AB0009F4FFC0111830083CE01815A9F4F9E01FD
:100AC000215A3F4FF9012081318121503040FC01F2
:100AD00031832083CE01815A9F4FFC018081918117
:100AE000009789F62FC08E01015A1F4FCE01855AFB
:100AF0009F4FFC0160817181828193810E94940BE0
:100B0000DC01CB01F80191838083CE018D599F4F89
:100B10009E01215A3F4FF90120813181FC0131832F
:100B20002083CE018D599F4FFC01808191818C01E2
:100B3000C8010197F1F78C01CE018D599F4FFC013F
:100B40001183008380E00E94C7009E012B593F4F14
:100B500080E090E0A0EAB0E4F90180839183A28371
:100B6000B3838E0107591F4FCE018B599F4FFC0154
:100B7000608171818281938120E030E04AE755E411
:100B80000E94110CDC01CB01F80180839183A283C8
:100B9000B383CE0187599F4F11E0FC0160817181C1
:100BA0008281938120E030E040E85FE30E94900B77
:100BB00088230CF010E0112349F0CE0183599F4F98
:100BC00021E030E0FC013183208374C0CE018759DD
:100BD0009F4F11E0FC01608171818281938120E04F
:100BE0003FEF4FE757E40E940D0C18160CF010E091
:100BF000112309F44DC0CE018B599F4FFC01608138
:100C000071818281938120E030E040E251E40E94D2
:100C1000110CDC01CB018E0103591F4FBC01CD012A
:100C20000E94940BDC01CB01F8019183808327C0E3
:100C3000CE0181599F4F20E931E0FC0131832083AF
:100C4000CE0181599F4FFC01808191818C01C801A7
:100C50000197F1F78C01CE0181599F4FFC0111835F
:100C60000083CE0183599F4F9E0123593F4FF901C5
:100C70002081318121503040FC0131832083CE011D
:100C800083599F4FFC0180819181009789F62FC085
:100C90008E0103591F4FCE0187599F4FFC01608180
:100CA0007181828193810E94940BDC01CB01F80158
:100CB00091838083CE018F589F4F9E0123593F4FD0
:100CC000F90120813181FC0131832083CE018F58CD
:100CD0009F4FFC01808191818C01C8010197F1F740
:100CE0008C01CE018F589F4FFC011183008381E05E
:100CF0000E94C7009E012D583F4F80E090E0A0EA7F
:100D0000B0E4F90180839183A283B3838E010958F3
:100D10001F4FCE018D589F4FFC01608171818281F0
:100D2000938120E030E04AE755E40E94110CDC0199
:100D3000CB01F80180839183A283B383CE018958CC
:100D40009F4F11E0FC01608171818281938120E0DD
:100D500030E040E85FE30E94900B88230CF010E045
:100D6000112349F0CE0185589F4F21E030E0FC016E
:100D70003183208374C0CE0189589F4F11E0FC015C
:100D8000608171818281938120E03FEF4FE757E4DA
:100D90000E940D0C18160CF010E0112309F44DC040
:100DA000CE018D589F4FFC016081718182819381BA
:100DB00020E030E040E251E40E94110CDC01CB0164
:100DC0008E0105581F4FBC01CD010E94940BDC0120
:100DD000CB01F8019183808327C0CE0183589F4FB8
:100DE00020E931E0FC0131832083CE0183589F4FFD
:100DF000FC01808191818C01C8010197F1F78C0180
:100E0000CE0183589F4FFC0111830083CE0185588A
:100E10009F4F9E0125583F4FF9012081318121507C
:100E20003040FC0131832083CE0185589F4FFC0167
:100E300080819181009789F62FC08E0105581F4F40
:100E4000CE0189589F4FFC0160817181828193811D
:100E50000E94940BDC01CB01F80191838083CE01C9
:100E600081589F4F9E0125583F4FF90120813181C4
:100E7000FC0131832083CE0181589F4FFC0180818A
:100E800091818C01C8010197F1F78C01CE01815845
:100E90009F4FFC011183008380E00E94C7009E01E8
:100EA0002F573F4F80E090E0A0EAB0E4F901808343
:100EB0009183A283B3838E010B571F4FCE018F57AF
:100EC0009F4FFC01608171818281938120E030E03D
:100ED0004AE755E40E94110CDC01CB01F801808344
:100EE0009183A283B383CE018B579F4F11E0FC0106
:100EF000608171818281938120E030E040E85FE38E
:100F00000E94900B88230CF010E0112349F0CE01D1
:100F100087579F4F21E030E0FC013183208374C06C
:100F2000CE018B579F4F11E0FC016081718182815E
:100F3000938120E03FEF4FE757E40E940D0C181615
:100F40000CF010E0112309F44DC0CE018F579F4FD4
:100F5000FC01608171818281938120E030E040E278
:100F600051E40E94110CDC01CB018E0107571F4F89
:100F7000BC01CD010E94940BDC01CB01F8019183EF
:100F8000808327C0CE0185579F4F20E931E0FC01C7
:100F900031832083CE0185579F4FFC018081918151
:100FA0008C01C8010197F1F78C01CE0185579F4F45
:100FB000FC0111830083CE0187579F4F9E01275765
:100FC0003F4FF9012081318121503040FC013183B4
:100FD0002083CE0187579F4FFC018081918100972C
:100FE00089F62FC08E0107571F4FCE018B579F4F99
:100FF000FC0160817181828193810E94940BDC01EC
:10100000CB01F80191838083CE0183579F4F9E01CE
:1010100027573F4FF90120813181FC013183208323
:10102000CE0183579F4FFC01808191818C01C801C3
:101030000197F1F78C01CE0183579F4FFC0111837B
:10104000008386E00E94C7009E0121573F4F80E049
:1010500090E0A0EAB0E4F90180839183A283B38396
:101060008E010D561F4FCE0181579F4FFC016081AD
:1010700071818281938120E030E04AE755E40E944B
:10108000110CDC01CB01F80180839183A283B3832F
:10109000CE018D569F4F11E0FC01608171818281EC
:1010A000938120E030E040E85FE30E94900B8823CA
:1010B0000CF010E0112349F0CE0189569F4F21E03A
:1010C00030E0FC013183208374C0CE018D569F4FE8
:1010D00011E0FC01608171818281938120E03FEF0A
:1010E0004FE757E40E940D0C18160CF010E0112386
:1010F00009F44DC0CE0181579F4FFC016081718181
:101100008281938120E030E040E251E40E94110CA2
:10111000DC01CB018E0109561F4FBC01CD010E949D
:10112000940BDC01CB01F8019183808327C0CE01B1
:1011300087569F4F20E931E0FC0131832083CE01A7
:1011400087569F4FFC01808191818C01C8010197D6
:10115000F1F78C01CE0187569F4FFC01118300836C
:10116000CE0189569F4F9E0129563F4FF90120819C
:10117000318121503040FC0131832083CE018956DA
:101180009F4FFC0180819181009789F62FC08E01CD
:1011900009561F4FCE018D569F4FFC016081718112
:1011A000828193810E94940BDC01CB01F801918331
:1011B0008083CE0185569F4F9E0129563F4FF901EE
:1011C00020813181FC0131832083CE0185569F4FE0
:1011D000FC01808191818C01C8010197F1F78C019C
:1011E000CE0185569F4FFC011183008380E00E9451
:1011F000C7009E0123563F4F80E090E0A0EAB0E494
:10120000F90180839183A283B3838E010F551F4F11
:10121000CE0183569F4FFC01608171818281938151
:1012200020E030E04AE755E40E94110CDC01CB01DC
:10123000F80180839183A283B383CE018F559F4FA2
:1012400011E0FC01608171818281938120E030E0B6
:1012500040E85FE30E94900B88230CF010E011231C
:1012600049F0CE018B559F4F21E030E0FC013183E6
:10127000208374C0CE018F559F4F11E0FC01608127
:1012800071818281938120E03FEF4FE757E40E9414
:101290000D0C18160CF010E0112309F44DC0CE010E
:1012A00083569F4FFC01608171818281938120E090
:1012B00030E040E251E40E94110CDC01CB018E01D0
:1012C0000B551F4FBC01CD010E94940BDC01CB01DB
:1012D000F8019183808327C0CE0189559F4F20E973
:1012E00031E0FC0131832083CE0189559F4FFC0101
:1012F000808191818C01C8010197F1F78C01CE01A9
:1013000089559F4FFC0111830083CE018B559F4F60
:101310009E012B553F4FF9012081318121503040F2
:10132000FC0131832083CE018B559F4FFC018081CE
:101330009181009789F62FC08E010B551F4FCE016A
:101340008F559F4FFC0160817181828193810E9442
:10135000940BDC01CB01F80191838083CE0187558A
:101360009F4F9E012B553F4FF90120813181FC0198
:1013700031832083CE0187559F4FFC01808191816D
:101380008C01C8010197F1F78C01CE0187559F4F61
:10139000FC01118300838FE00E94C7009E01255548
:1013A0003F4F80E090E0A0EAB0E4F90180839183B0
:1013B000A283B3838E0101551F4FCE0185559F4FE8
:1013C000FC01608171818281938120E030E04AE7F5
:1013D00055E40E94110CDC01CB01F801808391835C
:1013E000A283B383CE0181559F4F11E0FC01608140
:1013F00071818281938120E030E040E85FE30E94C8
:10140000900B88230CF010E0112349F0CE018D548D
:101410009F4F21E030E0FC013183208374C0CE0176
:1014200081559F4F11E0FC01608171818281938120
:1014300020E03FEF4FE757E40E940D0C18160CF028
:1014400010E0112309F44DC0CE0185559F4FFC01DA
:10145000608171818281938120E030E040E251E43B
:101460000E94110CDC01CB018E010D541F4FBC01F9
:10147000CD010E94940BDC01CB01F80191838083A4
:1014800027C0CE018B549F4F20E931E0FC0131830E
:101490002083CE018B549F4FFC01808191818C0170
:1014A000C8010197F1F78C01CE018B549F4FFC01CD
:1014B00011830083CE018D549F4F9E012D543F4FC9
:1014C000F9012081318121503040FC01318320839A
:1014D000CE018D549F4FFC0180819181009789F648
:1014E0002FC08E010D541F4FCE0181559F4FFC011F
:1014F00060817181828193810E94940BDC01CB0118
:10150000F80191838083CE0189549F4F9E012D5411
:101510003F4FF90120813181FC0131832083CE01CD
:1015200089549F4FFC01808191818C01C8010197F2
:10153000F1F78C01CE0189549F4FFC011183008388
:101540008CE00E94C7009E0127543F4F80E090E04E
:10155000A0EAB0E4F90180839183A283B3838E0172
:1015600003541F4FCE0187549F4FFC01608171814E
:101570008281938120E030E04AE755E40E94110C1B
:10158000DC01CB01F80180839183A283B383CE0178
:1015900083549F4F11E0FC016081718182819381AE
:1015A00020E030E040E85FE30E94900B88230CF0DD
:1015B00010E0112349F0CE018F539F4F21E030E01E
:1015C000FC013183208374C0CE0183549F4F11E00E
:1015D000FC01608171818281938120E03FEF4FE7C0
:1015E00057E40E940D0C18160CF010E0112309F4BA
:1015F0004DC0CE0187549F4FFC0160817181828173
:10160000938120E030E040E251E40E94110CDC01C3
:10161000CB018E010F531F4FBC01CD010E94940BD3
:10162000DC01CB01F8019183808327C0CE018D536B
:101630009F4F20E931E0FC0131832083CE018D539F
:101640009F4FFC01808191818C01C8010197F1F7C6
:101650008C01CE018D539F4FFC0111830083CE017D
:101660008F539F4F9E012F533F4FF90120813181AE
:1016700021503040FC0131832083CE018F539F4F96
:10168000FC0180819181009789F62FC08E010F5354
:101690001F4FCE0183549F4FFC0160817181828175
:1016A00093810E94940BDC01CB01F801918380832C
:1016B000CE018B539F4F9E012F533F4FF901208145
:1016C0003181FC0131832083CE018B539F4FFC017C
:1016D000808191818C01C8010197F1F78C01CE01C5
:1016E0008B539F4FFC011183008380E00E94C70051
:1016F000CA53DF4F0FB6F894DEBF0FBECDBFDF91E8
:10170000CF911F910F910895CF93DF93CDB7DEB79F
:101710008AE390E02FEFFC0120830E940E01FFCFAF
:101720002FD008F481E0089557D088F09F5790F0AB
:10173000B92F9927B751A0F0D1F0660F771F881FF6
:10174000991F1AF0BA95C9F712C0B13081F05ED076
:10175000B1E008955BC0672F782F8827B85F39F014
:10176000B93FCCF3869577956795B395D9F73EF455
:1017700090958095709561957F4F8F4F9F4F0895FD
:10178000990F0008550FAA0BE0E8FEEF1616170692
:10179000E807F907C0F012161306E407F50798F0FA
:1017A000621B730B840B950B39F40A2661F0232B13
:1017B000242B252B21F408950A2609F4A140A6958F
:1017C0008FEF811D811D089557FD9058440F551FBF
:1017D00059F05F3F71F04795880F97FB991F61F0B3
:1017E0009F3F79F087950895121613061406551F2A
:1017F000F2CF4695F1DF08C0161617061806991F96
:10180000F1CF86957105610508940895E894BB278A
:1018100066277727CB0197F90895B2DF08F48FEF99
:1018200008950BD078C069D028F06ED018F09523B9
:1018300009F05AC05FC01124EACFC6DFA0F3959F1C
:10184000D1F3950F50E0551F629FF001729FBB27A7
:10185000F00DB11D639FAA27F00DB11DAA1F649F53
:101860006627B00DA11D661F829F2227B00DA11D06
:10187000621F739FB00DA11D621F839FA00D611D8C
:10188000221F749F3327A00D611D231F849F600DAD
:10189000211D822F762F6A2F11249F5750408AF0E6
:1018A000E1F088234AF0EE0FFF1FBB1F661F771F72
:1018B000881F91505040A9F79E3F510570F014C009
:1018C000A6CF5F3FECF3983EDCF38695779567955E
:1018D000B795F795E7959F5FC1F7FE2B880F911D90
:1018E0009695879597F9089597F99F6780E870E036
:1018F00060E008959FEF80EC089500240A94161686
:10190000170618060906089500240A9412161306ED
:10191000140605060895092E0394000C11F488237B
:1019200052F0BB0F40F4BF2B11F460FF04C06F5F97
:0C1930007F4F8F4F9F4F0895F894FFCF1A
:00000001FF
