:100000000C942A000C9447000C9447000C94470071
:100010000C9447000C9447000C9447000C94470044
:100020000C9447000C9447000C9447000C94470034
:100030000C9447000C9447000C9447000C94470024
:100040000C9447000C9447000C9447000C94470014
:100050000C94470011241FBECFE5D8E0DEBFCDBF12
:1000600010E0A0E6B0E0E8E0F2E002C005900D92FA
:10007000A436B107D9F720E0A4E6B0E001C01D9294
:10008000A636B207E1F70E94D7000C9402010C9447
:100090000000CF93DF9300D000D01F92CDB7DEB722
:1000A0009D838C8319828C819D819B838A8318C058
:1000B0008A819B81FC014081209164003091650020
:1000C0008981882F90E0820F931F642F0E94F50092
:1000D00089818F5F89838A819B8101969B838A8333
:1000E0008A819B81FC018081882311F72091640023
:1000F000309165008981882F90E0820F931F60E026
:100100000E94F5008091640090916500C2969093E2
:100110006500809364008091640090916500C297AF
:100120000F900F900F900F900F90DF91CF91089547
:10013000CF93DF93CDB7DEB7EA970FB6F894DEBF63
:100140000FBECDBF9AAF89AF89AD9AAD9A8389832F
:100150001C821B8218C089819A810E94ED00482F61
:100160009E01295F3F4F8B819C81820F931FFC0171
:1001700040838B819C8101969C838B8389819A81AA
:1001800001969A8389838B819C81823391051CF32C
:10019000CE0107969E838D838D819E81EA960FB650
:1001A000F894DEBF0FBECDBFDF91CF910895CF93FE
:1001B000DF9300D0CDB7DEB780E690E00E94490023
:1001C00080E090E00E9498009A83898380E090E02C
:1001D0000F900F90DF91CF910895E199FECF9FBBD3
:1001E0008EBBE09A99278DB30895262FE199FECF13
:1001F0009FBB8EBB2DBB0FB6F894E29AE19A0FBE5F
:0802000001960895F894FFCF68
:040208006161000030
:00000001FF
