S00B00006772612E73726563DF
S11300000C942A000C9447000C9437050C94470078
S11300100C9447000C9447000C9447000C94470040
S11300200C9447000C9447000C9447000C94470030
S11300300C9447000C9434030C9447000C94470030
S11300400C9447000C9447000C9447000C94470010
S11300500C94470011241FBECFE5D8E0DEBFCDBF0E
S113006010E0A0E6B0E0E8E0FCE202C005900D92EA
S1130070AC38B107D9F711E0ACE8B0E001C01D928B
S1130080A237B107E1F70E9441040C9402160C94C4
S11300900000CF93DF930F92CDB7DEB789838BE354
S11300A090E02BE330E0F9012081322F307F298169
S11300B022952F70232BFC0120830F90DF91CF9189
S11300C00895CF93DF930F92CDB7DEB789838BE387
S11300D090E02BE330E0F9012081322F307F298139
S11300E02F70232BFC0120830F90DF91CF91089573
S11300F0CF93DF930F92CDB7DEB789838BE390E084
S1130100FC0110828BE390E02BE330E0F9012081C5
S11301102068FC0120838BE390E02BE330E0F901BD
S113012020812064FC0120838BE390E02BE330E00A
S1130130F9012081322F307F298122952F70232BC2
S1130140FC0120838BE390E02BE330E0F901208174
S11301502F7BFC0120838BE390E02BE330E0F9015B
S113016020812064FC0120838BE390E02BE330E0CA
S1130170F9012081322F307F29812F70232BFC013C
S113018020838BE390E02BE330E0F90120812F7B87
S1130190FC0120838BE390E02BE330E0F901208124
S11301A02F77FC0120838BE390E0FC0110820F90F9
S11301B0DF91CF910895CF93DF930F92CDB7DEB740
S11301C089838BE390E02BE330E0F9012081206404
S11301D0FC0120838BE390E02BE330E0F9012081E4
S11301E0322F307F29812F70232BFC0120838BE356
S11301F090E02BE330E0F90120812F7BFC01208388
S11302000F90DF91CF910895CF93DF9300D000D06A
S11302100F92CDB7DEB79D838C8319828C819D812B
S11302209B838A8318C020918E0030918F0089812E
S1130230882F90E0820F931F2A813B81F90120814E
S1130240622F0E94891589818F5F89838A819B81AE
S113025001969B838A838A819B81FC018081882308
S113026011F720918E0030918F008981882F90E0C2
S1130270820F931F60E00E94891580918E009091F7
S11302808F00C29690938F0080938E0080918E0091
S113029090918F00C2970F900F900F900F900F9036
S11302A0DF91CF910895CF93DF93CDB7DEB7E99770
S11302B00FB6F894DEBF0FBECDBF89AF89AD882FCE
S11302C090E09A8389831C821B8218C089819A8159
S11302D00E948115482F9E01295F3F4F8B819C818D
S11302E0820F931FFC0140838B819C8101969C8328
S11302F08B8389819A8101969A8389838B819C81DE
S1130300823391051CF3CE0107969E838D838D81E4
S11303109E81E9960FB6F894DEBF0FBECDBFDF9184
S1130320CF910895CF93DF93CDB7DEB784E390E008
S113033020EFFC01208385E390E02FE0FC01208383
S1130340DF91CF910895CF93DF930F92CDB7DEB7AE
S1130350198285E390E02FE7FC01208383E390E09A
S1130360FC018081882F90E081709070009769F47F
S1130370000083E390E0FC018081882F90E081708D
S113038090700097B1F380E1898383E390E0FC01EE
S11303908081882F90E082709070009769F400004B
S11303A083E390E0FC018081882F90E0817090705D
S11303B00097B1F380E2898383E390E0FC018081BC
S11303C0882F90E084709070009769F4000083E3B4
S11303D090E0FC018081882F90E0817090700097FC
S11303E0B1F380E3898383E390E0FC018081882F6B
S11303F090E088709070009769F4000083E390E0C7
S1130400FC018081882F90E0817090700097B1F397
S113041080E4898385E390E02FEBFC01208383E370
S113042090E0FC018081882F90E0817090700097AB
S113043069F4000083E390E0FC018081882F90E060
S1130440817090700097B1F384E0898383E390E036
S1130450FC018081882F90E082709070009769F48D
S1130460000083E390E0FC018081882F90E081709C
S113047090700097B1F385E0898383E390E0FC01F9
S11304808081882F90E084709070009769F4000058
S113049083E390E0FC018081882F90E0817090706C
S11304A00097B1F386E0898383E390E0FC018081C7
S11304B0882F90E088709070009769F4000083E3BF
S11304C090E0FC018081882F90E08170907000970B
S11304D0B1F387E0898385E390E02FEDFC0120836D
S11304E083E390E0FC018081882F90E0817090701C
S11304F0009769F4000083E390E0FC018081882F79
S113050090E0817090700097B1F388E0898383E371
S113051090E0FC018081882F90E0827090700097B9
S113052069F4000083E390E0FC018081882F90E06F
S1130530817090700097B1F389E0898383E390E040
S1130540FC018081882F90E084709070009769F49A
S1130550000083E390E0FC018081882F90E08170AB
S113056090700097B1F38AE0898383E390E0FC0103
S11305708081882F90E088709070009769F4000063
S113058083E390E0FC018081882F90E0817090707B
S11305900097B1F38BE0898385E390E02FEEFC01B3
S11305A0208383E390E0FC018081882F90E08170B8
S11305B09070009769F4000083E390E0FC0180816F
S11305C0882F90E0817090700097B1F38CE089835C
S11305D083E390E0FC018081882F90E0827090702A
S11305E0009769F4000083E390E0FC018081882F88
S11305F090E0817090700097B1F38DE0898383E37C
S113060090E0FC018081882F90E0847090700097C6
S113061069F4000083E390E0FC018081882F90E07E
S1130620817090700097B1F38EE0898383E390E04A
S1130630FC018081882F90E088709070009769F4A5
S1130640000083E390E0FC018081882F90E08170BA
S113065090700097B1F38FE089830E9492018981A1
S11306600F90DF91CF9108951F920F920FB60F92C2
S113067011242F933F938F939F93EF93FF93CF93E3
S1130680DF93CDB7DEB780919400909195000097E9
S113069009F045C08CE290E0FC0180818B3149F483
S11306A081E090E0909395008093940082E08093A1
S11306B060008CE290E0FC018081883079F48CE267
S11306C090E020E2FC0120838091900090919100C1
S11306D00197909391008093900021C080919000A5
S11306E0909191002CE230E0F90120818C509F4FD1
S11306F0FC0120838CE290E02091900030919100E5
S11307002C503F4FF9012081FC01208380919000FF
S11307109091910001969093910080939000DF91C5
S1130720CF91FF91EF919F918F913F912F910F90D6
S11307300FBE0F901F901895CF93DF93CDB7DEB700
S11307408AE290E02AE230E0F90120812861FC018C
S113075020838AE290E02AE230E0F90120812068D7
S1130760FC01208380E490E020E430E0F901208162
S11307702668FC01208389E290E027E6FC012083BF
S113078081E090E09093930080939200DF91CF9169
S11307900895CF93DF93CDB7DEB783E590E025E0EE
S11307A0FC01208389E590E029E530E0F90120810E
S11307B02160FC01208382E590E0FC0110827894A2
S11307C081E090E09093990080939800DF91CF911D
S11307D00895CF93DF9300D000D000D0CDB7DEB71B
S11307E09A8389837C836B835E834D838B819C8115
S11307F0009769F42D813E8189819A8128173907F0
S113080031F481E090E090939B0080939A004B81B7
S11308105C818B819C8101979C838B8389819A81E4
S11308202D813E81BA01A9010E94E90626960FB6E0
S1130830F894DEBF0FBECDBFDF91CF910895CF9363
S1130840DF9300D0CDB7DEB79A83898381E090E04F
S113085090935901809358018EE190E09093F300B6
S11308608093F20089819A8190935B0180935A016D
S113087010929B0010929A000F900F90DF91CF91ED
S11308800895CF93DF9300D000D0CDB7DEB78AE3CD
S113089090E02FEFFC01208384E390E0FC011082C0
S11308A085E390E02FEFFC012083198289E390E334
S11308B09B838A838A819B810E944A150E944515E5
S11308C024E030E0B9010E94C91401960E941F047B
S11308D00E9492010E94A3018C839C8189819817B4
S11308E031F08C81882319F019828C8189838BE300
S11308F090E02981FC01208380919A0090919B00D3
S11309008130910519F484E0809360008091600047
S1130910882F90E082309105A1F08330910544F452
S1130920009709F467C08130910509F446C09EC060
S11309308330910509F472C08430910509F477C0BD
S113094095C08C818330C1F48091580190915901F4
S1130950019724E030E0B9010E94C9140196409146
S1130960F2005091F30020915A0130915B01BA01D9
S1130970A9010E94E90317C080915801909159017F
S1130980019624E030E0B9010E94C9140196409117
S1130990F2005091F30020915A0130915B01BA01A9
S11309A0A9010E94E9038091980090919900009711
S11309B009F057C00E94C90354C08AE090E00E9425
S11309C0540584E190E00E9454058EE190E00E9479
S11309D0540588E290E00E94540582E390E00E946E
S11309E054058CE390E00E94540586E490E00E9454
S11309F054053CC085E790E02DE730E0B9010E9442
S1130A0024088C81813019F483E0809360008C8108
S1130A10823049F581E08093600025C08091920086
S1130A2090919300009709F50E949C031EC0809149
S1130A309600909197002CE531E0B9014AE050E02E
S1130A400E94601581E690E02CE531E0B9010E9436
S1130A50551584EF90E021E630E0B9010E942408A6
S1130A6037CF000003C0000001C0000031CF1F9247
S1130A700F920FB60F9211248F939F93CF93DF930E
S1130A80CDB7DEB780919600909197000196909330
S1130A90970080939600DF91CF919F918F910F9053
S1130AA00FBE0F901F9018950F931F93CF93DF9352
S1130AB0CDB7DEB762970FB6F894DEBF0FBECDBFD9
S1130AC09A8B898B89890E9453019A8389838981AE
S1130AD09A810E94F60580E090E0A8ECB2E48B8352
S1130AE09C83AD83BE836B817C818D819E8120E05C
S1130AF030E04AE755E40E943E14DC01CB018F83C9
S1130B009887A987BA8711E06F81788589859A8546
S1130B1020E030E040E85FE30E94BD1388230CF03E
S1130B2010E0112329F081E090E09C878B8746C078
S1130B3011E06F81788589859A8520E03FEF4FE742
S1130B4057E40E943A1418160CF010E0112361F1D6
S1130B506B817C818D819E8120E030E040E251E414
S1130B600E943E14DC01CB01BC01CD010E94C113E3
S1130B70DC01CB019C878B8712C080E991E09E87C2
S1130B808D878D859E858C01C8010197F1F78C01B5
S1130B901E870D878B859C8501979C878B878B850A
S1130BA09C85009751F717C06F81788589859A8550
S1130BB00E94C113DC01CB019C878B878B859C85AC
S1130BC0988B8F878F8598898C01C8010197F1F7DD
S1130BD08C01188B0F8762960FB6F894DEBF0FBE98
S1130BE0CDBFDF91CF911F910F9108950F931F9364
S1130BF0CF93DF93CDB7DEB760970FB6F894DEBF1F
S1130C000FBECDBF988B8F878BC08F859889FC01D1
S1130C1080810E9478008F8598890196988B8F87B0
S1130C2080E090E0A0E8BFE389839A83AB83BC8330
S1130C3069817A818B819C8120E030E04AE755E428
S1130C400E943E14DC01CB018D839E83AF83B88761
S1130C5011E06D817E818F81988520E030E040E84D
S1130C605FE30E94BD1388230CF010E0112329F0E8
S1130C7081E090E09A87898746C011E06D817E818A
S1130C808F81988520E03FEF4FE757E40E943A14A4
S1130C9018160CF010E0112361F169817A818B81BF
S1130CA09C8120E030E040E251E40E943E14DC01EB
S1130CB0CB01BC01CD010E94C113DC01CB019A8799
S1130CC0898712C080E991E09C878B878B859C85FE
S1130CD08C01C8010197F1F78C011C870B8789856A
S1130CE09A8501979A87898789859A85009751F70C
S1130CF017C06D817E818F8198850E94C113DC01AC
S1130D00CB019A87898789859A859E878D878D856A
S1130D109E858C01F8013197F1F78F011E870D87AD
S1130D208F859889FC018081882309F06ECF6096B5
S1130D300FB6F894DEBF0FBECDBFDF91CF911F91E8
S1130D400F910895CF93DF93CDB7DEB710929F0034
S1130D5010929E0012C080919E0090919F00805638
S1130D609F4F20E2FC01208380919E0090919F0080
S1130D70019690939F0080939E0080919E00909195
S1130D809F00893291053CF310929F0010929E00BF
S1130D9012C080919E0090919F0086539F4F20E245
S1130DA0FC01208380919E0090919F000196909376
S1130DB09F0080939E0080919E0090919F008832B6
S1130DC091053CF31092F2001092C800DF91CF918C
S1130DD008950F931F93CF93DF93CDB7DEB7649736
S1130DE00FB6F894DEBF0FBECDBF988B8F877A8B7A
S1130DF0698B5C8B4B8B0E94A2068F85988982300D
S1130E00910591F08330910524F48130910541F0EE
S1130E1017C08330910561F08430910569F010C0EA
S1130E2087E28093A0000CC08CE28093A00008C0ED
S1130E3087E28093CA0004C08CE28093CA00000059
S1130E408B899C8982309105B1F08330910524F41B
S1130E508130910541F027C083309105A1F08430A1
S1130E609105C9F020C089899A8980569F4F27E24D
S1130E70FC01208318C089899A8980569F4F2CE2EF
S1130E80FC01208310C089899A8986539F4F27E2E9
S1130E90FC01208308C089899A8986539F4F2CE2DC
S1130EA0FC012083000089899A890097D1F52B8958
S1130EB03C898F8598892817390799F58B899C89EE
S1130EC082309105B1F08330910524F4813091058D
S1130ED041F027C083309105A1F084309105C9F019
S1130EE020C089899A8980569F4F24E2FC0120837F
S1130EF018C089899A8980569F4F24E2FC01208377
S1130F0010C089899A8986539F4F24E2FC0120836B
S1130F1008C089899A8986539F4F24E2FC01208363
S1130F20000080EA90E00E94F6058AEC90E00E94BE
S1130F30F60580E090E0A0EFB1E489839A83AB8367
S1130F40BC8369817A818B819C8120E030E04AE70F
S1130F5055E40E943E14DC01CB018D839E83AF8354
S1130F60B88711E06D817E818F81988520E030E023
S1130F7040E85FE30E94BD1388230CF010E01123C6
S1130F8029F081E090E09A87898746C011E06D815D
S1130F907E818F81988520E03FEF4FE757E40E94E0
S1130FA03A1418160CF010E0112361F169817A816A
S1130FB08B819C8120E030E040E251E40E943E14A9
S1130FC0DC01CB01BC01CD010E94C113DC01CB01CA
S1130FD09A87898712C080E991E09C878B878B85EB
S1130FE09C858C01C8010197F1F78C011C870B8744
S1130FF089859A8501979A87898789859A85009733
S113100051F717C06D817E818F8198850E94C1132D
S1131010DC01CB019A87898789859A859E878D878C
S11310208D859E858C01F8013197F1F78F011E871C
S11310300D8764960FB6F894DEBF0FBECDBFDF9167
S1131040CF911F910F910895CF93DF9300D000D0DB
S1131050CDB7DEB79A8389837C836B8315C0809177
S11310609C0090919D0029813A81F901208180564C
S11310709F4FFC01208380919C0090919D000196DC
S113108090939D0080939C0089819A81FC018081CA
S1131090882329F710929D0010929C0015C080911E
S11310A09C0090919D002B813C81F9012081865305
S11310B09F4FFC01208380919C0090919D0001969C
S11310C090939D0080939C0089819A81FC0180818A
S11310D0882329F710929D0010929C000F900F9086
S11310E00F900F90DF91CF9108950F931F93CF939B
S11310F0DF93CDB7DEB7C45DD0400FB6F894DEBF42
S11311000FBECDBF80E090E0A0E7B1E48B839C8369
S1131110AD83BE836B817C818D819E8120E030E034
S11311204AE755E40E943E14DC01CB018F83988783
S1131130A987BA8711E06F81788589859A8520E02F
S113114030E040E85FE30E94BD1388230CF010E018
S1131150112329F081E090E09C878B8746C011E041
S11311606F81788589859A8520E03FEF4FE757E4C2
S11311700E943A1418160CF010E0112361F16B81EF
S11311807C818D819E8120E030E040E251E40E9428
S11311903E14DC01CB01BC01CD010E94C113DC0172
S11311A0CB019C878B8712C080E991E09E878D8755
S11311B08D859E858C01C8010197F1F78C011E87EE
S11311C00D878B859C8501979C878B878B859C8558
S11311D0009751F717C06F81788589859A850E9499
S11311E0C113DC01CB019C878B878B859C85988BF5
S11311F08F878F8598898C01F8013197F1F78F01DA
S1131200188B0F871A82198288C083E00E94DB0042
S113121080E090E0A0EAB0E4898B9A8BAB8BBC8B26
S113122069897A898B899C8920E030E04AE755E412
S11312300E943E14DC01CB018D8B9E8BAF8BB88F4B
S113124011E06D897E898F89988D20E030E040E837
S11312505FE30E94BD1388230CF010E0112329F0F2
S113126081E090E09A8F898F46C011E06D897E8974
S11312708F89988D20E03FEF4FE757E40E943A149E
S113128018160CF010E0112361F169897A898B89B1
S11312909C8920E030E040E251E40E943E14DC01ED
S11312A0CB01BC01CD010E94C113DC01CB019A8F9B
S11312B0898F12C080E991E09C8F8B8F8B8D9C8DE0
S11312C08C01C8010197F1F78C011C8F0B8F898D5C
S11312D09A8D01979A8F898F898D9A8D009751F7EE
S11312E017C06D897E898F89988D0E94C113DC0196
S11312F0CB019A8F898F898D9A8D9E8F8D8F8D8D3D
S11313009E8D8C01F8013197F1F78F011E8F0D8F9F
S113131089819A8101969A83898389819A8183300C
S113132091050CF472CF82E00E94DB0080E090E033
S1131330A0EAB0E48F8F98A3A9A3BAA36F8D78A174
S113134089A19AA120E030E04AE755E40E943E14C6
S1131350DC01CB018BA39CA3ADA3BEA311E06BA1C5
S11313607CA18DA19EA120E030E040E85FE30E94D3
S1131370BD1388230CF010E0112329F081E090E0E4
S113138098A78FA346C011E06BA17CA18DA19EA15B
S113139020E03FEF4FE757E40E943A1418160CF090
S11313A010E0112361F16F8D78A189A19AA120E049
S11313B030E040E251E40E943E14DC01CB01BC0168
S11313C0CD010E94C113DC01CB0198A78FA312C0E9
S11313D080E991E09AA789A789A59AA58C01C801FB
S11313E00197F1F78C011AA709A78FA198A5019776
S11313F098A78FA38FA198A5009751F717C06BA149
S11314007CA18DA19EA10E94C113DC01CB0198A7F0
S11314108FA38FA198A59CA78BA78BA59CA58C01B6
S1131420F8013197F1F78F011CA70BA782E00E9406
S1131430DB0080E090E0A0EAB0E48DA79EA7AFA710
S1131440B8AB6DA57EA58FA598A920E030E04AE74A
S113145055E40E943E14DC01CB0189AB9AABABABE3
S1131460BCAB11E069A97AA98BA99CA920E030E062
S113147040E85FE30E94BD1388230CF010E01123C1
S113148029F081E090E09EAB8DAB46C011E069A9E4
S11314907AA98BA99CA920E03FEF4FE757E40E946B
S11314A03A1418160CF010E0112361F16DA57EA515
S11314B08FA598A920E030E040E251E40E943E1458
S11314C0DC01CB01BC01CD010E94C113DC01CB01C5
S11314D09EAB8DAB12C080E991E098AF8FAB8FA922
S11314E098AD8C01C8010197F1F78C0118AF0FABCF
S11314F08DA99EA901979EAB8DAB8DA99EA900973E
S113150051F717C069A97AA98BA99CA90E94C11394
S1131510DC01CB019EAB8DAB8DA99EA99AAF89AF9F
S113152089AD9AAD8C01F8013197F1F78F011AAFAB
S113153009AF88E00E94DB0080E090E0A0EAB0E41C
S11315408BAF9CAFADAFBEAF8E01015C1F4F6BADD7
S11315507CAD8DAD9EAD20E030E04AE755E40E94BD
S11315603E14DC01CB01F80180839183A283B38311
S1131570CE01CF9611E0FC0160817181828193815B
S113158020E030E040E85FE30E94BD1388230CF0C4
S113159010E0112349F0CE018D5B9F4F21E030E034
S11315A0FC01318320836EC0CE01CF9611E0FC0193
S11315B0608171818281938120E03FEF4FE757E49E
S11315C00E943A1418160CF010E0112309F449C0D3
S11315D06BAD7CAD8DAD9EAD20E030E040E251E4DA
S11315E00E943E14DC01CB018E010D5B1F4FBC0138
S11315F0CD010E94C113DC01CB01F80191838083EA
S113160027C0CE018B5B9F4F20E931E0FC01318381
S11316102083CE018B5B9F4FFC01808191818C01E3
S1131620C8010197F1F78C01CE018B5B9F4FFC0140
S113163011830083CE018D5B9F4F9E012D5B3F4F35
S1131640F9012081318121503040FC013183208314
S1131650CE018D5B9F4FFC0180819181009789F6BB
S11316602EC08E010D5B1F4FCE01CF96FC01608111
S11316707181828193810E94C113DC01CB01F80145
S113168091838083CE01895B9F4F9E012D5B3F4FE9
S1131690F90120813181FC0131832083CE01895BF2
S11316A09F4FFC01808191818C01C8010197F1F762
S11316B08C01CE01895B9F4FFC011183008380E084
S11316C00E94DB009E01275B3F4F80E090E0A0EA90
S11316D0B0E4F90180839183A283B3838E01035B19
S11316E01F4FCE01875B9F4FFC0160817181828116
S11316F0938120E030E04AE755E40E943E14DC0187
S1131700CB01F80180839183A283B383CE01835BF1
S11317109F4F11E0FC01608171818281938120E0FF
S113172030E040E85FE30E94BD1388230CF010E032
S1131730112349F0CE018F5A9F4F21E030E0FC0184
S11317403183208374C0CE01835B9F4F11E0FC0181
S1131750608171818281938120E03FEF4FE757E4FC
S11317600E943A1418160CF010E0112309F44DC02D
S1131770CE01875B9F4FFC016081718182819381DF
S113178020E030E040E251E40E943E14DC01CB0151
S11317908E010F5A1F4FBC01CD010E94C113DC0101
S11317A0CB01F8019183808327C0CE018D5A9F4FCE
S11317B020E931E0FC0131832083CE018D5A9F4F13
S11317C0FC01808191818C01C8010197F1F78C01A2
S11317D0CE018D5A9F4FFC0111830083CE018F5A95
S11317E09F4F9E012F5A3F4FF90120813181215093
S11317F03040FC0131832083CE018F5A9F4FFC017E
S113180080819181009789F62FC08E010F5A1F4F56
S1131810CE01835B9F4FFC01608171818281938142
S11318200E94C113DC01CB01F80191838083CE01B6
S11318308B5A9F4F9E012F5A3F4FF90120813181CE
S1131840FC0131832083CE018B5A9F4FFC018081A0
S113185091818C01C8010197F1F78C01CE018B5A5B
S11318609F4FFC011183008388E00E94DB009E01EE
S1131870295A3F4F80E090E0A0EAB0E4F901808368
S11318809183A283B3838E01055A1F4FCE01895AD7
S11318909F4FFC01608171818281938120E030E05F
S11318A04AE755E40E943E14DC01CB01F801808331
S11318B09183A283B383CE01855A9F4F11E0FC012B
S11318C0608171818281938120E030E040E85FE3B0
S11318D00E94BD1388230CF010E0112349F0CE01BF
S11318E0815A9F4F21E030E0FC013183208374C092
S11318F0CE01855A9F4F11E0FC0160817181828184
S1131900938120E03FEF4FE757E40E943A14181602
S11319100CF010E0112309F44DC0CE01895A9F4FF9
S1131920FC01608171818281938120E030E040E29A
S113193051E40E943E14DC01CB018E01015A1F4F79
S1131940BC01CD010E94C113DC01CB01F8019183DC
S1131950808327C0CE018F599F4F20E931E0FC01DD
S113196031832083CE018F599F4FFC018081918167
S11319708C01C8010197F1F78C01CE018F599F4F5B
S1131980FC0111830083CE01815A9F4F9E01215A8D
S11319903F4FF9012081318121503040FC013183D6
S11319A02083CE01815A9F4FFC0180819181009751
S11319B089F62FC08E01015A1F4FCE01855A9F4FC1
S11319C0FC0160817181828193810E94C113DC01D9
S11319D0CB01F80191838083CE018D599F4F9E01E5
S11319E0215A3F4FF90120813181FC013183208349
S11319F0CE018D599F4FFC01808191818C01C801DA
S1131A000197F1F78C01CE018D599F4FFC01118391
S1131A10008380E00E94DB009E012B593F4F80E051
S1131A2090E0A0EAB0E4F90180839183A283B383B8
S1131A308E0107591F4FCE018B599F4FFC016081C6
S1131A4071818281938120E030E04AE755E40E946D
S1131A503E14DC01CB01F80180839183A283B3831C
S1131A60CE0187599F4F11E0FC0160817181828111
S1131A70938120E030E040E85FE30E94BD138823B7
S1131A800CF010E0112349F0CE0183599F4F21E05F
S1131A9030E0FC013183208374C0CE0187599F4F0D
S1131AA011E0FC01608171818281938120E03FEF2C
S1131AB04FE757E40E943A1418160CF010E0112373
S1131AC009F44DC0CE018B599F4FFC016081718197
S1131AD08281938120E030E040E251E40E943E1490
S1131AE0DC01CB018E0103591F4FBC01CD010E94C3
S1131AF0C113DC01CB01F8019183808327C0CE019F
S1131B0081599F4F20E931E0FC0131832083CE01CC
S1131B1081599F4FFC01808191818C01C8010197FB
S1131B20F1F78C01CE0181599F4FFC011183008391
S1131B30CE0183599F4F9E0123593F4FF9012081C4
S1131B40318121503040FC0131832083CE018359FF
S1131B509F4FFC0180819181009789F62FC08E01EF
S1131B6003591F4FCE0187599F4FFC01608171813A
S1131B70828193810E94C113DC01CB01F80191831E
S1131B808083CE018F589F4F9E0123593F4FF90107
S1131B9020813181FC0131832083CE018F589F4FF6
S1131BA0FC01808191818C01C8010197F1F78C01BE
S1131BB0CE018F589F4FFC011183008381E00E9466
S1131BC0DB009E012D583F4F80E090E0A0EAB0E496
S1131BD0F90180839183A283B3838E0109581F4F37
S1131BE0CE018D589F4FFC01608171818281938168
S1131BF020E030E04AE755E40E943E14DC01CB01CA
S1131C00F80180839183A283B383CE0189589F4FC7
S1131C1011E0FC01608171818281938120E030E0D8
S1131C2040E85FE30E94BD1388230CF010E0112309
S1131C3049F0CE0185589F4F21E030E0FC0131830B
S1131C40208374C0CE0189589F4F11E0FC0160814C
S1131C5071818281938120E03FEF4FE757E40E9436
S1131C603A1418160CF010E0112309F44DC0CE01FB
S1131C708D589F4FFC01608171818281938120E0A6
S1131C8030E040E251E40E943E14DC01CB018E01BD
S1131C9005581F4FBC01CD010E94C113DC01CB01CB
S1131CA0F8019183808327C0CE0183589F4F20E998
S1131CB031E0FC0131832083CE0183589F4FFC0126
S1131CC0808191818C01C8010197F1F78C01CE01CB
S1131CD083589F4FFC0111830083CE0185589F4F89
S1131CE09E0125583F4FF901208131812150304018
S1131CF0FC0131832083CE0185589F4FFC018081F4
S1131D009181009789F62FC08E0105581F4FCE018F
S1131D1089589F4FFC0160817181828193810E9467
S1131D20C113DC01CB01F80191838083CE0181587A
S1131D309F4F9E0125583F4FF90120813181FC01BD
S1131D4031832083CE0181589F4FFC018081918192
S1131D508C01C8010197F1F78C01CE0181589F4F86
S1131D60FC011183008380E00E94DB009E012F5759
S1131D703F4F80E090E0A0EAB0E4F90180839183D2
S1131D80A283B3838E010B571F4FCE018F579F4FF2
S1131D90FC01608171818281938120E030E04AE717
S1131DA055E40E943E14DC01CB01F8018083918349
S1131DB0A283B383CE018B579F4F11E0FC01608156
S1131DC071818281938120E030E040E85FE30E94EA
S1131DD0BD1388230CF010E0112349F0CE0187577E
S1131DE09F4F21E030E0FC013183208374C0CE0199
S1131DF08B579F4F11E0FC01608171818281938137
S1131E0020E03FEF4FE757E40E943A1418160CF015
S1131E1010E0112309F44DC0CE018F579F4FFC01F0
S1131E20608171818281938120E030E040E251E45D
S1131E300E943E14DC01CB018E0107571F4FBC01E9
S1131E40CD010E94C113DC01CB01F8019183808391
S1131E5027C0CE0185579F4F20E931E0FC01318333
S1131E602083CE0185579F4FFC01808191818C0195
S1131E70C8010197F1F78C01CE0185579F4FFC01F2
S1131E8011830083CE0187579F4F9E0127573F4FF1
S1131E90F9012081318121503040FC0131832083BC
S1131EA0CE0187579F4FFC0180819181009789F66D
S1131EB02FC08E0107571F4FCE018B579F4FFC0138
S1131EC060817181828193810E94C113DC01CB0105
S1131ED0F80191838083CE0183579F4F9E0127573A
S1131EE03F4FF90120813181FC0131832083CE01F0
S1131EF083579F4FFC01808191818C01C801019718
S1131F00F1F78C01CE0183579F4FFC0111830083AD
S1131F1086E00E94DB009E0121573F4F80E090E065
S1131F20A0EAB0E4F90180839183A283B3838E0194
S1131F300D561F4FCE0181579F4FFC016081718167
S1131F408281938120E030E04AE755E40E943E1408
S1131F50DC01CB01F80180839183A283B383CE019A
S1131F608D569F4F11E0FC016081718182819381C4
S1131F7020E030E040E85FE30E94BD1388230CF0CA
S1131F8010E0112349F0CE0189569F4F21E030E043
S1131F90FC013183208374C0CE018D569F4F11E024
S1131FA0FC01608171818281938120E03FEF4FE7E2
S1131FB057E40E943A1418160CF010E0112309F4A7
S1131FC04DC0CE0181579F4FFC0160817181828198
S1131FD0938120E030E040E251E40E943E14DC01B1
S1131FE0CB018E0109561F4FBC01CD010E94C113C4
S1131FF0DC01CB01F8019183808327C0CE01875691
S11320009F4F20E931E0FC0131832083CE018756C4
S11320109F4FFC01808191818C01C8010197F1F7E8
S11320208C01CE0187569F4FFC0111830083CE01A2
S113203089569F4F9E0129563F4FF90120813181D6
S113204021503040FC0131832083CE0189569F4FBB
S1132050FC0180819181009789F62FC08E01095679
S11320601F4FCE018D569F4FFC016081718182818B
S113207093810E94C113DC01CB01F8019183808319
S1132080CE0185569F4F9E0129563F4FF90120816D
S11320903181FC0131832083CE0185569F4FFC01A1
S11320A0808191818C01C8010197F1F78C01CE01E7
S11320B085569F4FFC011183008380E00E94DB0062
S11320C09E0123563F4F80E090E0A0EAB0E4F9017E
S11320D080839183A283B3838E010F551F4FCE015A
S11320E083569F4FFC01608171818281938120E03E
S11320F030E04AE755E40E943E14DC01CB01F801CC
S113210080839183A283B383CE018F559F4F11E0C7
S1132110FC01608171818281938120E030E040E89C
S11321205FE30E94BD1388230CF010E0112349F0F3
S1132130CE018B559F4F21E030E0FC013183208399
S113214074C0CE018F559F4F11E0FC0160817181F5
S11321508281938120E03FEF4FE757E40E943A14D5
S113216018160CF010E0112309F44DC0CE0183566B
S11321709F4FFC01608171818281938120E030E076
S113218040E251E40E943E14DC01CB018E010B5568
S11321901F4FBC01CD010E94C113DC01CB01F8012A
S11321A09183808327C0CE0189559F4F20E931E078
S11321B0FC0131832083CE0189559F4FFC0180812E
S11321C091818C01C8010197F1F78C01CE018955E9
S11321D09F4FFC0111830083CE018B559F4F9E01BD
S11321E02B553F4FF9012081318121503040FC01B2
S11321F031832083CE018B559F4FFC0180819181D7
S1132200009789F62FC08E010B551F4FCE018F55B5
S11322109F4FFC0160817181828193810E94C1136F
S1132220DC01CB01F80191838083CE0187559F4F58
S11322309E012B553F4FF90120813181FC013183EF
S11322402083CE0187559F4FFC01808191818C01B1
S1132250C8010197F1F78C01CE0187559F4FFC010E
S1132260118300838FE00E94DB009E0125553F4FC0
S113227080E090E0A0EAB0E4F90180839183A28336
S1132280B3838E0101551F4FCE0185559F4FFC012D
S1132290608171818281938120E030E04AE755E4D6
S11322A00E943E14DC01CB01F80180839183A28358
S11322B0B383CE0181559F4F11E0FC016081718190
S11322C08281938120E030E040E85FE30E94BD1307
S11322D088230CF010E0112349F0CE018D549F4F58
S11322E021E030E0FC013183208374C0CE018155AC
S11322F09F4F11E0FC01608171818281938120E014
S11323003FEF4FE757E40E943A1418160CF010E020
S1132310112309F44DC0CE0185559F4FFC01608106
S113232071818281938120E030E040E251E40E9497
S11323303E14DC01CB018E010D541F4FBC01CD01B5
S11323400E94C113DC01CB01F8019183808327C073
S1132350CE018B549F4F20E931E0FC01318320836F
S1132360CE018B549F4FFC01808191818C01C80167
S11323700197F1F78C01CE018B549F4FFC0111831F
S11323800083CE018D549F4F9E012D543F4FF90180
S11323902081318121503040FC0131832083CE01E2
S11323A08D549F4FFC0180819181009789F62FC045
S11323B08E010D541F4FCE0181559F4FFC0160814A
S11323C07181828193810E94C113DC01CB01F801E8
S11323D091838083CE0189549F4F9E012D543F4F9A
S11323E0F90120813181FC0131832083CE0189549C
S11323F09F4FFC01808191818C01C8010197F1F705
S11324008C01CE0189549F4FFC011183008380E825
S11324100E94DB009E0127543F4F80E090E0A0EA39
S1132420B0E4F90180839183A283B3838E010354C2
S11324301F4FCE0187549F4FFC01608171818281BF
S1132440938120E030E04AE755E40E943E14DC0129
S1132450CB01F80180839183A283B383CE0183549B
S11324609F4F11E0FC01608171818281938120E0A2
S113247030E040E85FE30E94BD1388230CF010E0D5
S1132480112349F0CE018F539F4F21E030E0FC012E
S11324903183208374C0CE0183549F4F11E0FC012B
S11324A0608171818281938120E03FEF4FE757E49F
S11324B00E943A1418160CF010E0112309F44DC0D0
S11324C0CE0187549F4FFC01608171818281938189
S11324D020E030E040E251E40E943E14DC01CB01F4
S11324E08E010F531F4FBC01CD010E94C113DC01AB
S11324F0CB01F8019183808327C0CE018D539F4F78
S113250020E931E0FC0131832083CE018D539F4FBC
S1132510FC01808191818C01C8010197F1F78C0144
S1132520CE018D539F4FFC0111830083CE018F5345
S11325309F4F9E012F533F4FF9012081318121503C
S11325403040FC0131832083CE018F539F4FFC0127
S113255080819181009789F62FC08E010F531F4F00
S1132560CE0183549F4FFC016081718182819381EC
S11325700E94C113DC01CB01F80191838083CE0159
S11325808B539F4F9E012F533F4FF901208131817F
S1132590FC0131832083CE018B539F4FFC0180814A
S11325A091818C01C8010197F1F78C01CE018B5305
S11325B09F4FFC011183008380E00E94DB009E0199
S11325C029533F4F80E090E0A0EAB0E4F901808312
S11325D09183A283B3838E0105531F4FCE01895388
S11325E09F4FFC01608171818281938120E030E002
S11325F04AE755E40E943E14DC01CB01F8018083D4
S11326009183A283B383CE0185539F4F11E0FC01D4
S1132610608171818281938120E030E040E85FE352
S11326200E94BD1388230CF010E0112349F0CE0161
S113263081539F4F21E030E0FC013183208374C03B
S1132640CE0185539F4F11E0FC016081718182812D
S1132650938120E03FEF4FE757E40E943A141816A5
S11326600CF010E0112309F44DC0CE0189539F4FA3
S1132670FC01608171818281938120E030E040E23D
S113268051E40E943E14DC01CB018E0101531F4F23
S1132690BC01CD010E94C113DC01CB01F80191837F
S11326A0808327C0CE018F529F4F20E931E0FC0187
S11326B031832083CE018F529F4FFC018081918111
S11326C08C01C8010197F1F78C01CE018F529F4F05
S11326D0FC0111830083CE0181539F4F9E0121533E
S11326E03F4FF9012081318121503040FC01318379
S11326F02083CE0181539F4FFC01808191810097FB
S113270089F62FC08E0101531F4FCE0185539F4F71
S1132710FC0160817181828193810E94C113DC017B
S1132720CB01F80191838083CE018D529F4F9E018E
S113273021533F4FF90120813181FC0131832083F2
S1132740CE018D529F4FFC01808191818C01C80183
S11327500197F1F78C01CE018D529F4FFC0111833B
S11327600083CC52DF4F0FB6F894DEBF0FBECDBF4F
S1132770DF91CF911F910F9108952FD008F481E03C
S1132780089557D088F09F5790F0B92F9927B751E3
S1132790A0F0D1F0660F771F881F991F1AF0BA9521
S11327A0C9F712C0B13081F05ED0B1E008955BC0CA
S11327B0672F782F8827B85F39F0B93FCCF3869517
S11327C077956795B395D9F73EF490958095709574
S11327D061957F4F8F4F9F4F0895990F0008550FB4
S11327E0AA0BE0E8FEEF16161706E807F907C0F093
S11327F012161306E407F50798F0621B730B840B9B
S1132800950B39F40A2661F0232B242B252B21F474
S113281008950A2609F4A140A6958FEF811D811D14
S1132820089557FD9058440F551F59F05F3F71F0BC
S11328304795880F97FB991F61F09F3F79F0879523
S11328400895121613061406551FF2CF4695F1DFAC
S113285008C0161617061806991FF1CF869571053C
S1132860610508940895E894BB2766277727CB0170
S113287097F90895B2DF08F48FEF08950BD078C06C
S113288069D028F06ED018F0952309F05AC05FC0C3
S11328901124EACFC6DFA0F3959FD1F3950F50E042
S11328A0551F629FF001729FBB27F00DB11D639FFE
S11328B0AA27F00DB11DAA1F649F6627B00DA11DA4
S11328C0661F829F2227B00DA11D621F739FB00D4A
S11328D0A11D621F839FA00D611D221F749F3327BA
S11328E0A00D611D231F849F600D211D822F762F53
S11328F06A2F11249F5750408AF0E1F088234AF050
S1132900EE0FFF1FBB1F661F771F881F915050409B
S1132910A9F79E3F510570F014C0A6CF5F3FECF3BA
S1132920983EDCF3869577956795B795F795E79587
S11329309F5FC1F7FE2B880F911D9695879597F998
S1132940089597F99F6780E870E060E008959FEF2D
S113295080EC089500240A94161617061806090632
S1132960089500240A941216130614060506089501
S1132970092E0394000C11F4882352F0BB0F40F489
S1132980BF2B11F460FF04C06F5F7F4F8F4F9F4FC9
S1132990089597FB092E07260AD077FD04D00CD0A2
S11329A006D000201AF4709561957F4F0895F6F7CC
S11329B0909581959F4F0895AA1BBB1B51E107C0B9
S11329C0AA1FBB1FA617B70710F0A61BB70B881FBB
S11329D0991F5A95A9F780959095BC01CD0108954A
S11329E08F929F92AF92BF92CF92DF92EF92FF921B
S11329F0CF93DF93EC0188819981AA81BB810097F1
S1132A00A105B10521F484E299EDABE5B7E0BC0181
S1132A10CD012DE133EF41E050E00E94C51549019D
S1132A205A0127EA31E440E050E00E94A6156B0108
S1132A307C01C501B4012CEE34EF4FEF5FEF0E942F
S1132A40A615DC01CB01C80ED91EEA1EFB1EF7FE3B
S1132A5008C08FEF9FEFAFEFBFE7C80ED91EEA1E85
S1132A60FB1EC882D982EA82FB82C6019F77DF916E
S1132A70CF91FF90EF90DF90CF90BF90AF909F9059
S1132A808F9008950E94F014089587E890E00E94C2
S1132A90F0140895A0E0B0E080938700909388003C
S1132AA0A0938900B0938A000895FB01DC010D9086
S1132AB00020E9F7119701900D920020E1F70895A5
S1132AC0FB019F01E8944230C4F04532B4F44A302B
S1132AD029F497FB1EF4909581959F4F642F7727D7
S1132AE00E94DC14805D8A330CF0895D8193CB01F4
S1132AF00097A1F716F45DE251931082C9010C947A
S1132B009615E199FECF9FBB8EBBE09A99278DB3B2
S1132B100895262FE199FECF9FBB8EBB2DBB0FB628
S1132B20F894E29AE19A0FBE01960895DC01FC0143
S1132B30672F71917723E1F7329704C07C916D93ED
S1132B4070836291AE17BF07C8F30895629FD001E6
S1132B50739FF001829FE00DF11D649FE00DF11D54
S1132B60929FF00D839FF00D749FF00D659FF00D03
S1132B709927729FB00DE11DF91F639FB00DE11DF0
S1132B80F91FBD01CF011124089597FB092E0526D5
S1132B900ED057FD04D014D00AD0001C38F4509540
S1132BA04095309521953F4F4F4F5F4F0895F6F76D
S1132BB090958095709561957F4F8F4F9F4F0895A5
S1132BC0A1E21A2EAA1BBB1BFD010DC0AA1FBB1F2D
S1132BD0EE1FFF1FA217B307E407F50720F0A21B9F
S1132BE0B30BE40BF50B661F771F881F991F1A940C
S1132BF069F760957095809590959B01AC01BD0136
S10B2C00CF010895F894FFCF01
S1132C08035A646F6279B33A2000000000000000A0
S1132C180000000000312E204772616A00322E2025
S10F2C2857796E696B6900010000000020
S9030000FC
