S00B00006772612E73726563DF
S11300000C942A000C9447000C948E050C94470021
S11300100C9447000C9447000C9447000C94470040
S11300200C9447000C9447000C9447000C94470030
S11300300C9447000C94C1030C9447000C944700A3
S11300400C9447000C9447000C9447000C94470010
S11300500C94470011241FBECFE5D8E0DEBFCDBF0E
S113006011E0A0E6B0E0E4E1F9E302C005900D92EE
S1130070A831B107D9F722E0A8E1B1E001C01D928F
S1130080A531B207E1F70E944F050C94881C0C942B
S11300900000CF93DF931F92CDB7DEB789838BE344
S11300A090E0FC0110828BE390E02BE330E0F90157
S11300B020812068FC0120838BE390E02BE330E077
S11300C0F90120812064FC0120838BE390E02BE381
S11300D030E0F9012081322F307F298122952F7061
S11300E0232BFC0120838BE390E02BE330E0F90128
S11300F020812F7BFC0120838BE390E02BE330E015
S1130100F90120812064FC0120838BE390E02BE340
S113011030E0F9012081322F307F29812F70232B89
S1130120FC0120838BE390E02BE330E0F901208194
S11301302F7BFC0120838BE390E02BE330E0F9017B
S113014020812F77FC0120838BE390E0FC01108257
S11301500F90DF91CF910895CF93DF931F92CDB786
S1130160DEB789838BE390E02BE330E0F901208153
S11301702064FC0120838BE390E02BE330E0F90161
S11301802081322F307F29812F70232BFC01208383
S11301908BE390E02BE330E0F90120812F7BFC011D
S11301A020830F90DF91CF910895CF93DF9300D0F8
S11301B000D000D0CDB7DEB79E838D838D819E8124
S11301C09A8389831C821B8210C02091180130916C
S11301D019018B819C81820F931F60E20E94FA1B9C
S11301E08B819C8101969C838B8380916400282F52
S11301F030E08B819C81821793073CF31C821B8225
S113020019C089819A81FC014081209118013091A3
S113021019018B819C81820F931F642F0E94FA1B0A
S11302208B819C8101969C838B8389819A81019621
S11302309A83898389819A81FC018081882309F7C3
S1130240209118013091190180916400882F90E069
S1130250820F931F90931901809318012091180124
S11302603091190180916400882F90E091958195D7
S11302709109820F931F26960FB6F894DEBF0FBE26
S1130280CDBFDF91CF910895CF93DF931F92CDB768
S1130290DEB7898380911801909119019C014091E6
S11302A01801509119018981882F90E091958195C9
S11302B09109840F951FA901481B590BCA010E947B
S11302C065010F90DF91CF910895EF92FF920F9304
S11302D01F93CF93DF93CDB7DEB72C970FB6F89467
S11302E0DEBF0FBECDBF9C878B870DB71EB78DB702
S11302F09EB77C018B859C859A83898320916400B9
S1130300822F90E001979E838D83822F90E02DB7FA
S11303103EB7281B390B0FB6F8943EBF0FBE2DBF56
S11303208DB79EB7019698878F831C821B8217C056
S113033089819A810E94F21B482F2F8138858B81F5
S11303409C81820F931FFC0140838B819C810196C9
S11303509C838B8389819A8101969A838983809176
S11303606400282F30E08B819C818217930704F36B
S11303708F8198859A87898789859A850FB6F8949D
S1130380FEBE0FBEEDBE0FB6F8941EBF0FBE0DBF6E
S11303902C960FB6F894DEBF0FBECDBFDF91CF9180
S11303A01F910F91FF90EF900895CF93DF93CDB7F6
S11303B0DEB762970FB6F894DEBF0FBECDBF1092C2
S11303C01901109218011A8219822BC09E012D5F07
S11303D03F4F89819A814AE050E0B9010E94D11BC4
S11303E0CE0103969C01F90101900020E9F7CF01A9
S11303F00197821B930B9E012D5F3F4F820F931F2A
S11304002DE0EEE7F0E0DC0101900D922A95E1F792
S1130410CE0103960E94D50089819A8101969A8320
S1130420898389819A818A30910584F262960FB614
S1130430F894DEBF0FBECDBFDF91CF910895CF9367
S1130440DF93CDB7DEB784E390E020EFFC01208397
S113045085E390E02FE0FC012083DF91CF910895A4
S1130460CF93DF931F92CDB7DEB7198285E390E077
S11304702FE7FC01208383E390E0FC018081882F37
S113048090E081709927009769F4000083E390E07D
S1130490FC018081882F90E0817099270097B1F347
S11304A080E1898383E390E0FC018081882F90E0E0
S11304B082709927009769F4000083E390E0FC01BF
S11304C08081882F90E0817099270097B1F380E2B2
S11304D0898383E390E0FC018081882F90E084701D
S11304E09927009769F4000083E390E0FC01808180
S11304F0882F90E0817099270097B1F380E3898376
S113050083E390E0FC018081882F90E08870992734
S1130510009769F4000083E390E0FC018081882F58
S113052090E0817099270097B1F380E4898385E393
S113053090E02FEBFC01208383E390E0FC018081B9
S1130540882F90E081709927009769F4000083E375
S113055090E0FC018081882F90E0817099270097BA
S1130560B1F384E0898383E390E0FC018081882FE8
S113057090E082709927009769F4000083E390E08B
S1130580FC018081882F90E0817099270097B1F356
S113059085E0898383E390E0FC018081882F90E0EB
S11305A084709927009769F4000083E390E0FC01CC
S11305B08081882F90E0817099270097B1F386E0BD
S11305C0898383E390E0FC018081882F90E0887028
S11305D09927009769F4000083E390E0FC0180818F
S11305E0882F90E0817099270097B1F387E0898381
S11305F085E390E02FEDFC01208383E390E0FC0190
S11306008081882F90E081709927009769F4000019
S113061083E390E0FC018081882F90E0817099272A
S11306200097B1F388E0898383E390E0FC01808143
S1130630882F90E082709927009769F4000083E383
S113064090E0FC018081882F90E0817099270097C9
S1130650B1F389E0898383E390E0FC018081882FF2
S113066090E084709927009769F4000083E390E098
S1130670FC018081882F90E0817099270097B1F365
S11306808AE0898383E390E0FC018081882F90E0F5
S113069088709927009769F4000083E390E0FC01D7
S11306A08081882F90E0817099270097B1F38BE0C7
S11306B0898385E390E02FEEFC01208383E390E0BF
S11306C0FC018081882F90E081709927009769F45C
S11306D0000083E390E0FC018081882F90E081702A
S11306E099270097B1F38CE0898383E390E0FC01C0
S11306F08081882F90E082709927009769F4000028
S113070083E390E0FC018081882F90E08170992739
S11307100097B1F38DE0898383E390E0FC0180814D
S1130720882F90E084709927009769F4000083E390
S113073090E0FC018081882F90E0817099270097D8
S1130740B1F38EE0898383E390E0FC018081882FFC
S113075090E088709927009769F4000083E390E0A3
S1130760FC018081882F90E0817099270097B1F374
S11307708FE089830E941F0289810F90DF91CF91BE
S113078008951F920F9200905F000F9211242F93EF
S11307903F938F939F93EF93FF93CF93DF93CDB7C3
S11307A0DEB780911C0190911D01009709F045C0AE
S11307B08CE290E0FC0180818B3149F481E090E08F
S11307C090931D0180931C0182E0809365008CE26C
S11307D090E0FC018081883079F48CE290E020E2A2
S11307E0FC01208380911A0190911B010197909341
S11307F01B0180931A0121C080911A0190911B0161
S11308002CE230E0F901208185569E4FFC012083C3
S11308108CE290E020911A0130911B0125563E4F45
S1130820F9012081FC01208380911A0190911B0120
S1130830019690931B0180931A01DF91CF91FF9150
S1130840EF919F918F913F912F910F9000925F00B4
S11308500F901F9018950F931F93CF93DF93CDB7ED
S1130860DEB764970FB6F894DEBF0FBECDBF988B8A
S11308708F877A8B698B5C8B4B8B89899A890097DC
S113088069F42B893C898F8598892817390731F4B5
S113089081E090E0909321018093200189899A89D5
S11308A08F3F2FEF920761F580E190E0909327014D
S11308B0809326010E94B61B83709078992324F4B8
S11308C001978C6F9F6F01960196909329018093F5
S11308D02801209122013091230148ED4203C001F7
S11308E0439F900D11249C012253310980917A0079
S11308F090917B00820F931F90937B0080937A00EA
S113090080912601909127019C01019790932701E2
S1130910809326014B895C898F859889B9010E944F
S11309206F0E409122015091230180E79EEF489F72
S11309309001499F300D589F300D112480917A0009
S113094090917B00820F931FAA2797FDA095BA2F41
S1130950BC01CD010E944E1ADC01CB0189839A832C
S1130960AB83BC8320E030E04AE755E469817A81B7
S11309708B819C810E94DA1ADC01CB018D839E83DA
S1130980AF83B88720E030E040E85FE36D817E818B
S11309908F8198850E941C1A88232CF481E090E0B2
S11309A09A87898742C020E03FEF4FE757E46D8183
S11309B07E818F8198850E94D61A181664F520E0EE
S11309C030E040E251E469817A818B819C810E940C
S11309D0DA1ADC01CB01BC01CD010E94201ADC0132
S11309E0CB019A87898712C080E991E09C878B8725
S11309F08B859C858C01C8010197F1F78C011C87BC
S1130A000B8789859A8501979A87898789859A852D
S1130A10009751F717C06D817E818F8198850E9460
S1130A20201ADC01CB019A87898789859A859E875C
S1130A308D878D859E858C01C8010197F1F78C0106
S1130A401E870D8764960FB6F894DEBF0FBECDBF28
S1130A50DF91CF911F910F910895CF93DF9300D031
S1130A60CDB7DEB79A83898381E090E09093250126
S1130A70809324018AE090E09093270180932601DB
S1130A8089819A81909329018093280110922101F0
S1130A90109220010F900F90DF91CF910895CF9382
S1130AA0DF931F92CDB7DEB70E94D5018AE390E0B1
S1130AB02FEFFC01208384E390E0FC01108285E3A6
S1130AC090E02FEFFC01208319820E9416100E94EF
S1130AD01F020E94300280932C0180912F0190917B
S1130AE030018130910581F0823091051CF400972A
S1130AF041F013C08230910551F08330910551F0DB
S1130B000CC00E94AD0509C00E94B80B06C00E942B
S1130B10C50703C00E94C4090000D9CF1F920F92D9
S1130B2000905F000F9211248F939F93CF93DF93D4
S1130B30CDB7DEB780911E0190911F01019690936D
S1130B401F0180931E01DF91CF919F918F910F9090
S1130B5000925F000F901F9018950F931F93CF93EF
S1130B60DF93CDB7DEB7AA970FB6F894DEBF0FBEFA
S1130B70CDBF80912A0190912B01009771F40E94BE
S1130B80280E6CE870E08AE990E00E94A20F81E0F0
S1130B9090E090932B0180932A0180917C009091A6
S1130BA07D00009739F580912D0190912E018130BF
S1130BB0910561F08230910581F00097A9F46CE809
S1130BC070E08AE990E00E94A20F0EC06CEA70E027
S1130BD089EB90E00E94A20F07C06CEC70E089EBF7
S1130BE090E00E94A20F000081E090E090937D00CD
S1130BF080937C0080912C01863009F095C020916F
S1130C002D0130912E0180912D0190912E0141E012
S1130C10181619060CF040E0842F90E0A901481B37
S1130C20590BCA0190932E0180932D0110927D00DF
S1130C3010927C0010922C0180E090E0A6E9B3E4CD
S1130C4089839A83AB83BC8320E030E04AE755E490
S1130C5069817A818B819C810E94DA1ADC01CB0143
S1130C608D839E83AF83B88720E030E040E85FE364
S1130C706D817E818F8198850E941C1A88232CF4B3
S1130C8081E090E09A87898742C020E03FEF4FE7F8
S1130C9057E46D817E818F8198850E94D61A18163B
S1130CA064F520E030E040E251E469817A818B818F
S1130CB09C810E94DA1ADC01CB01BC01CD010E94A7
S1130CC0201ADC01CB019A87898712C080E991E060
S1130CD09C878B878B859C858C01C8010197F1F7D4
S1130CE08C011C870B8789859A8501979A87898748
S1130CF089859A85009751F717C06D817E818F8110
S1130D0098850E94201ADC01CB019A8789878985FE
S1130D109A859E878D878D859E858C01C801019754
S1130D20F1F78C011E870D8780912C018E3009F01C
S1130D3093C080912D0190912E0121E08230910584
S1130D400CF020E0222F30E080912D0190912E01B3
S1130D50820F931F90932E0180932D0110927D009A
S1130D6010927C0010922C0180E090E0A6E9B3E49C
S1130D708F87988BA98BBA8B20E030E04AE755E443
S1130D806F85788989899A890E94DA1ADC01CB01F6
S1130D908B8B9C8BAD8BBE8B20E030E040E85FE317
S1130DA06B897C898D899E890E941C1A88232CF466
S1130DB081E090E0988F8F8B42C020E03FEF4FE7B7
S1130DC057E46B897C898D899E890E94D61A1816EE
S1130DD064F520E030E040E251E46F857889898948
S1130DE09A890E94DA1ADC01CB01BC01CD010E9470
S1130DF0201ADC01CB01988F8F8B12C080E991E01F
S1130E009A8F898F898D9A8D8C01C8010197F1F78A
S1130E108C011A8F098F8F89988D0197988F8F8BEA
S1130E208F89988D009751F717C06B897C898D89BC
S1130E309E890E94201ADC01CB01988F8F8B8F89A9
S1130E40988D9C8F8B8F8B8D9C8D8C01C801019705
S1130E50F1F78C011C8F0B8F80912C018A3009F0E3
S1130E6089C080912D0190912E01019690933001BB
S1130E7080932F0110927D0010927C0010922B0120
S1130E8010922A0180E090E0A6E9B3E48D8F9E8F52
S1130E90AF8FB8A320E030E04AE755E46D8D7E8D36
S1130EA08F8D98A10E94DA1ADC01CB0189A39AA341
S1130EB0ABA3BCA320E030E040E85FE369A17AA1E2
S1130EC08BA19CA10E941C1A88232CF481E090E041
S1130ED09EA38DA342C020E03FEF4FE757E469A1F2
S1130EE07AA18BA19CA10E94D61A181664F520E061
S1130EF030E040E251E46D8D7E8D8F8D98A10E948B
S1130F00DA1ADC01CB01BC01CD010E94201ADC01FC
S1130F10CB019EA38DA312C080E991E098A78FA373
S1130F208FA198A58C01C8010197F1F78C0118A72E
S1130F300FA38DA19EA101979EA38DA38DA19EA118
S1130F40009751F717C069A17AA18BA19CA10E94B7
S1130F50201ADC01CB019EA38DA38DA19EA19AA78B
S1130F6089A789A59AA58C01C8010197F1F78C017D
S1130F701AA709A7AA960FB6F894DEBF0FBECDBF75
S1130F80DF91CF911F910F9108950F931F93CF93EA
S1130F90DF93CDB7DEB7AC970FB6F894DEBF0FBEC4
S1130FA0CDBF80912A0190912B010097D9F48AE05A
S1130FB08093310180E00E9444019A83898389816E
S1130FC09A81BC0186ED90E00E94A20F81E090E03E
S1130FD090937D0080937C0081E090E090932B01BE
S1130FE080932A0180917C0090917D00009789F480
S1130FF0809132018295807F0E944401BC0186ED7C
S113100090E00E94A20F81E090E090937D00809395
S11310107C0080912C01863009F08BC090913201C4
S11310202091320181E0222309F480E0292F281B3A
S1131030822F8093320110927D0010927C001092D6
S11310402C0180E090E0A6E9B3E48B839C83AD831C
S1131050BE8320E030E04AE755E46B817C818D81DA
S11310609E810E94DA1ADC01CB018F839887A987BD
S1131070BA8720E030E040E85FE36F8178858985B6
S11310809A850E941C1A88232CF481E090E09C87A6
S11310908B8742C020E03FEF4FE757E46F817885AC
S11310A089859A850E94D61A181664F520E030E0E6
S11310B040E251E46B817C818D819E810E94DA1A29
S11310C0DC01CB01BC01CD010E94201ADC01CB0163
S11310D09C878B8712C080E991E09E878D878D85E0
S11310E09E858C01C8010197F1F78C011E870D873D
S11310F08B859C8501979C878B878B859C85009726
S113110051F717C06F81788589859A850E94201AC6
S1131110DC01CB019C878B878B859C85988B8F8783
S11311208F8598898C01C8010197F1F78C01188B80
S11311300F8780912C018E3009F092C0809132018A
S1131140282F30E080913101882F90E0019741E011
S1131150281739070CF040E0942F80913201890F51
S11311608093320110927D0010927C0010922C0129
S113117080E090E0A6E9B3E4898B9A8BAB8BBC8BBF
S113118020E030E04AE755E469897A898B899C89B3
S11311900E94DA1ADC01CB018D8B9E8BAF8BB88F4A
S11311A020E030E040E85FE36D897E898F89988D87
S11311B00E941C1A88232CF481E090E09A8F898F76
S11311C042C020E03FEF4FE757E46D897E898F8965
S11311D0988D0E94D61A181664F520E030E040E29B
S11311E051E469897A898B899C890E94DA1ADC0125
S11311F0CB01BC01CD010E94201ADC01CB019A8FE6
S1131200898F12C080E991E09C8F8B8F8B8D9C8D90
S11312108C01C8010197F1F78C011C8F0B8F898D0C
S11312209A8D01979A8F898F898D9A8D009751F79E
S113123017C06D897E898F89988D0E94201ADC01E0
S1131240CB019A8F898F898D9A8D9E8F8D8F8D8DED
S11312509E8D8C01C8010197F1F78C011E8F0D8FB3
S113126080912C018A3009F084C0109230011092D0
S11312702F0110927D0010927C0010922B0110928D
S11312802A0180E090E0A6E9B3E48F8F98A3A9A394
S1131290BAA320E030E04AE755E46F8D78A189A134
S11312A09AA10E94DA1ADC01CB018BA39CA3ADA303
S11312B0BEA320E030E040E85FE36BA17CA18DA1F8
S11312C09EA10E941C1A88232CF481E090E098A728
S11312D08FA342C020E03FEF4FE757E46BA17CA10E
S11312E08DA19EA10E94D61A181664F520E030E064
S11312F040E251E46F8D78A189A19AA10E94DA1A83
S1131300DC01CB01BC01CD010E94201ADC01CB0120
S113131098A78FA312C080E991E09AA789A789A50D
S11313209AA58C01C8010197F1F78C011AA709A7A6
S11313308FA198A5019798A78FA38FA198A500972F
S113134051F717C06BA17CA18DA19EA10E94201A08
S1131350DC01CB0198A78FA38FA198A59CA78BA78D
S11313608BA59CA58C01C8010197F1F78C011CA7E2
S11313700BA7AC960FB6F894DEBF0FBECDBFDF91BE
S1131380CF911F910F9108950F931F93CF93DF93E4
S1131390CDB7DEB7AA970FB6F894DEBF0FBECDBFA8
S11313A080912A0190912B010097F9F480912201F8
S11313B090912301009739F467EE70E083EF90E099
S11313C00E94A20F06C06AEF70E083EF90E00E94D3
S11313D0A20F81E090E090937D0080937C0081E0F7
S11313E090E090932B0180932A0180917C0090914E
S11313F07D000097C9F48091220190912301009708
S113140039F467EE70E083EF90E00E94A20F06C00B
S11314106AEF70E083EF90E00E94A20F81E090E019
S113142090937D0080937C0080912C01863009F09C
S113143082C0109223011092220110927D0010921A
S11314407C0010922C0180E090E0A6E9B3E489834B
S11314509A83AB83BC8320E030E04AE755E469819A
S11314607A818B819C810E94DA1ADC01CB018D8305
S11314709E83AF83B88720E030E040E85FE36D816E
S11314807E818F8198850E941C1A88232CF481E028
S113149090E09A87898742C020E03FEF4FE757E406
S11314A06D817E818F8198850E94D61A181664F505
S11314B020E030E040E251E469817A818B819C81B3
S11314C00E94DA1ADC01CB01BC01CD010E94201A72
S11314D0DC01CB019A87898712C080E991E09C875F
S11314E08B878B859C858C01C8010197F1F78C0152
S11314F01C870B8789859A8501979A8789878985AF
S11315009A85009751F717C06D817E818F819885E8
S11315100E94201ADC01CB019A87898789859A85E4
S11315209E878D878D859E858C01C8010197F1F773
S11315308C011E870D8780912C018E3009F084C0A8
S113154081E090E0909323018093220110927D002A
S113155010927C0010922C0180E090E0A6E9B3E4A4
S11315608F87988BA98BBA8B20E030E04AE755E44B
S11315706F85788989899A890E94DA1ADC01CB01FE
S11315808B8B9C8BAD8BBE8B20E030E040E85FE31F
S11315906B897C898D899E890E941C1A88232CF46E
S11315A081E090E0988F8F8B42C020E03FEF4FE7BF
S11315B057E46B897C898D899E890E94D61A1816F6
S11315C064F520E030E040E251E46F857889898950
S11315D09A890E94DA1ADC01CB01BC01CD010E9478
S11315E0201ADC01CB01988F8F8B12C080E991E027
S11315F09A8F898F898D9A8D8C01C8010197F1F793
S11316008C011A8F098F8F89988D0197988F8F8BF2
S11316108F89988D009751F717C06B897C898D89C4
S11316209E890E94201ADC01CB01988F8F8B8F89B1
S1131630988D9C8F8B8F8B8D9C8D8C01C80101970D
S1131640F1F78C011C8F0B8F80912C018A3009F0EB
S113165084C01092300110922F0110927D001092DC
S11316607C0010922B0110922A0180E090E0A6E900
S1131670B3E48D8F9E8FAF8FB8A320E030E04AE7AC
S113168055E46D8D7E8D8F8D98A10E94DA1ADC0150
S1131690CB0189A39AA3ABA3BCA320E030E040E82C
S11316A05FE369A17AA18BA19CA10E941C1A8823E3
S11316B02CF481E090E09EA38DA342C020E03FEF94
S11316C04FE757E469A17AA18BA19CA10E94D61A85
S11316D0181664F520E030E040E251E46D8D7E8D13
S11316E08F8D98A10E94DA1ADC01CB01BC01CD01D7
S11316F00E94201ADC01CB019EA38DA312C080E9B5
S113170091E098A78FA38FA198A58C01C801019798
S1131710F1F78C0118A70FA38DA19EA101979EA399
S11317208DA38DA19EA1009751F717C069A17AA13D
S11317308BA19CA10E94201ADC01CB019EA38DA346
S11317408DA19EA19AA789A789A59AA58C01C801F4
S11317500197F1F78C011AA709A7AA960FB6F89476
S1131760DEBF0FBECDBFDF91CF911F910F910895C2
S11317700F931F93CF93DF93CDB7DEB76E970FB65A
S1131780F894DEBF0FBECDBF80912A0190912B014A
S1131790009701F50E947D0D82E08093650089E346
S11317A090E39A83898389819A810E94BB1B0E945A
S11317B0B61B83709078992324F401978C6F9F6FE4
S11317C0019601960E942D0581E090E090932B01F3
S11317D080932A018091200190912101813091050B
S11317E009F07BC084E08093650080E090E0AAE784
S11317F0B4E48B839C83AD83BE8320E030E04AE76E
S113180055E46B817C818D819E810E94DA1ADC0112
S1131810CB018F839887A987BA8720E030E040E81E
S11318205FE36F81788589859A850E941C1A8823D5
S11318302CF481E090E09C878B8742C020E03FEF4E
S11318404FE757E46F81788589859A850E94D61A77
S1131850181664F520E030E040E251E46B817C81AD
S11318608D819E810E94DA1ADC01CB01BC01CD017D
S11318700E94201ADC01CB019C878B8712C080E96F
S113188091E09E878D878D859E858C01C801019787
S1131890F1F78C011E870D878B859C8501979C87AA
S11318A08B878B859C85009751F717C06F8178854E
S11318B089859A850E94201ADC01CB019C878B873D
S11318C08B859C85988B8F878F8598898C01C8011F
S11318D00197F1F78C01188B0F8780916500882F91
S11318E090E08230910529F08430910509F45DC0BF
S11318F0F9C080912C01893011F5809124019091D7
S11319002501029683709078992324F401978C6FB3
S11319109F6F019601969093250180932401409135
S113192028015091290120912601309127018091AD
S1131930240190912501B9010E942B04D3C0809108
S11319402C018A3011F5809124019091250104968F
S113195083709078992324F401978C6F9F6F01967C
S11319600196909325018093240140912801509180
S11319702901209126013091270180912401909121
S11319802501B9010E942B04ADC04091280150915A
S11319902901209126013091270180912401909101
S11319A02501B9010E942B049DC080911E019091D4
S11319B01F014AE050E06FEF71E00E94D11B6FEF0E
S11319C071E086E690E00E94C61B66E670E086E061
S11319D091E00E94A20F80E090E0AAE7B5E4898B31
S11319E09A8BAB8BBC8B20E030E04AE755E46989E5
S11319F07A898B899C890E94DA1ADC01CB018D8B50
S1131A009E8BAF8BB88F20E030E040E85FE36D89B8
S1131A107E898F89988D0E941C1A88232CF481E07A
S1131A2090E09A8F898F42C020E03FEF4FE757E460
S1131A306D897E898F89988D0E94D61A181664F54F
S1131A4020E030E040E251E469897A898B899C89FD
S1131A500E94DA1ADC01CB01BC01CD010E94201ADC
S1131A60DC01CB019A8F898F12C080E991E09C8FB1
S1131A708B8F8B8D9C8D8C01C8010197F1F78C01A4
S1131A801C8F0B8F898D9A8D01979A8F898F898DE1
S1131A909A8D009751F717C06D897E898F89988D2B
S1131AA00E94201ADC01CB019A8F898F898D9A8D2F
S1131AB09E8F8D8F8D8D9E8D8C01C8010197F1F7BE
S1131AC08C011E8F0D8F1092300110922F011092F5
S1131AD02B0110922A0181E090E090937D00809385
S1131AE07C0000006E960FB6F894DEBF0FBECDBF2B
S1131AF0DF91CF911F910F910895CF93DF93CDB7CD
S1131B00DEB7DF91CF9108950F931F93CF93DF93A7
S1131B10CDB7DEB760970FB6F894DEBF0FBECDBF6A
S1131B20988B8F8783C08F859889FC0180810E9460
S1131B3049008F8598890196988B8F8780E090E083
S1131B40A0E8BFE389839A83AB83BC8320E030E0C1
S1131B504AE755E469817A818B819C810E94DA1A73
S1131B60DC01CB018D839E83AF83B88720E030E016
S1131B7040E85FE36D817E818F8198850E941C1A05
S1131B8088232CF481E090E09A87898742C020E082
S1131B903FEF4FE757E46D817E818F8198850E94E6
S1131BA0D61A181664F520E030E040E251E4698169
S1131BB07A818B819C810E94DA1ADC01CB01BC0101
S1131BC0CD010E94201ADC01CB019A87898712C0BB
S1131BD080E991E09C878B878B859C858C01C8016B
S1131BE00197F1F78C011C870B8789859A850197EA
S1131BF09A87898789859A85009751F717C06D81DF
S1131C007E818F8198850E94201ADC01CB019A87FE
S1131C10898789859A859E878D878D859E858C0188
S1131C20F8013197F1F78F011E870D878F85988909
S1131C30FC018081882309F076CF60960FB6F89472
S1131C40DEBF0FBECDBFDF91CF911F910F910895DD
S1131C50CF93DF93CDB7DEB71092340110923301E6
S1131C6012C080913301909134018B5C9E4F20E22D
S1131C70FC0120838091330190913401019690936B
S1131C80340180933301809133019091340189327E
S1131C9091053CF3109234011092330112C08091EB
S1131CA0330190913401815A9E4F20E2FC0120833C
S1131CB08091330190913401019690933401809383
S1131CC033018091330190913401883291053CF3C2
S1131CD01092870110925D01DF91CF9108950F93C7
S1131CE01F93CF93DF93CDB7DEB764970FB6F89405
S1131CF0DEBF0FBECDBF988B8F877A8B698B5C8BD1
S1131D004B8B0E94280E8F8598898230910591F023
S1131D108330910524F48130910541F017C083305C
S1131D20910561F08430910569F010C087E28093D9
S1131D3035010CC08CE28093350108C087E28093A2
S1131D405F0104C08CE280935F0100008B899C8951
S1131D5082309105B1F08330910524F481309105EE
S1131D6041F027C083309105A1F084309105C9F07A
S1131D7020C089899A898B5C9E4F27E2FC012083CD
S1131D8018C089899A898B5C9E4F2CE2FC012083C0
S1131D9010C089899A89815A9E4F27E2FC012083C9
S1131DA008C089899A89815A9E4F2CE2FC012083BC
S1131DB0000089899A890097D1F52B893C898F8500
S1131DC098892817390799F58B899C898230910560
S1131DD0B1F08330910524F48130910541F027C09E
S1131DE083309105A1F084309105C9F020C0898920
S1131DF09A898B5C9E4F24E2FC01208318C0898958
S1131E009A898B5C9E4F24E2FC01208310C089894F
S1131E109A89815A9E4F24E2FC01208308C0898953
S1131E209A89815A9E4F24E2FC012083000085E3B5
S1131E3091E00E94840D8FE591E00E94840D80E082
S1131E4090E0AAE7B4E489839A83AB83BC8320E05F
S1131E5030E04AE755E469817A818B819C810E9454
S1131E60DA1ADC01CB018D839E83AF83B88720E02F
S1131E7030E040E85FE36D817E818F8198850E9428
S1131E801C1A88232CF481E090E09A87898742C049
S1131E9020E03FEF4FE757E46D817E818F81988585
S1131EA00E94D61A181664F520E030E040E251E4AE
S1131EB069817A818B819C810E94DA1ADC01CB01D1
S1131EC0BC01CD010E94201ADC01CB019A878987CD
S1131ED012C080E991E09C878B878B859C858C015F
S1131EE0C8010197F1F78C011C870B8789859A85B6
S1131EF001979A87898789859A85009751F717C032
S1131F006D817E818F8198850E94201ADC01CB012E
S1131F109A87898789859A859E878D878D859E85F1
S1131F208C01F8013197F1F78F011E870D876496B4
S1131F300FB6F894DEBF0FBECDBFDF91CF911F91D6
S1131F400F910895CF93DF9300D000D000D0CDB788
S1131F50DEB79C838B837E836D831A82198213C0C0
S1131F6089819A81815A9E4F20E2FC0120838981D4
S1131F709A818B5C9E4F20E2FC01208389819A81A7
S1131F8001969A83898389819A818732910544F3E2
S1131F9080E280935C011A82198214C08B819C8137
S1131FA0FC01208189819A818B5C9E4FFC012083F6
S1131FB089819A8101969A8389838B819C81019678
S1131FC09C838B838B819C81FC018081882331F7E6
S1131FD01A82198214C08D819E81FC01208189811D
S1131FE09A81815A9E4FFC01208389819A810196AE
S1131FF09A8389838D819E8101969E838D838D81B1
S11320009E81FC018081882331F785E391E00E9461
S1132010840D8FE591E00E94840D26960FB6F89406
S1132020DEBF0FBECDBFDF91CF9108950F931F93F5
S1132030CF93DF93CDB7DEB7C65CD1090FB6F89462
S1132040DEBF0FBECDBF80E090E0A0E7B1E48B839C
S11320509C83AD83BE8320E030E04AE755E46B8186
S11320607C818D819E810E94DA1ADC01CB018F83F1
S11320709887A987BA8720E030E040E85FE36F8162
S1132080788589859A850E941C1A88232CF481E01E
S113209090E09C878B8742C020E03FEF4FE757E4F6
S11320A06F81788589859A850E94D61A181664F5F9
S11320B020E030E040E251E46B817C818D819E819F
S11320C00E94DA1ADC01CB01BC01CD010E94201A66
S11320D0DC01CB019C878B8712C080E991E09E874D
S11320E08D878D859E858C01C8010197F1F78C0140
S11320F01E870D878B859C8501979C878B878B8595
S11321009C85009751F717C06F81788589859A85DA
S11321100E94201ADC01CB019C878B878B859C85D0
S1132120988B8F878F8598898C01F8013197F1F707
S11321308F01188B0F871A82198280C083E00E9456
S1132140AC0080E090E0A0EAB0E4898B9A8BAB8B82
S1132150BC8B20E030E04AE755E469897A898B89B1
S11321609C890E94DA1ADC01CB018D8B9E8BAF8B8C
S1132170B88F20E030E040E85FE36D897E898F8985
S1132180988D0E941C1A88232CF481E090E09A8F89
S1132190898F42C020E03FEF4FE757E46D897E8985
S11321A08F89988D0E94D61A181664F520E030E0C5
S11321B040E251E469897A898B899C890E94DA1A00
S11321C0DC01CB01BC01CD010E94201ADC01CB0152
S11321D09A8F898F12C080E991E09C8F8B8F8B8DB1
S11321E09C8D8C01C8010197F1F78C011C8F0B8F1A
S11321F0898D9A8D01979A8F898F898D9A8D0097F1
S113220051F717C06D897E898F89988D0E94201A95
S1132210DC01CB019A8F898F898D9A8D9E8F8D8F4A
S11322208D8D9E8D8C01F8013197F1F78F011E8FF2
S11322300D8F89819A8101969A83898389819A81F4
S1132240833091050CF47ACF82E00E94AC0080E0E8
S113225090E0A0EAB0E48F8F98A3A9A3BAA320E0EA
S113226030E04AE755E46F8D78A189A19AA10E94D4
S1132270DA1ADC01CB018BA39CA3ADA3BEA320E09F
S113228030E040E85FE36BA17CA18DA19EA10E9498
S11322901C1A88232CF481E090E098A78FA342C0F5
S11322A020E03FEF4FE757E46BA17CA18DA19EA1F5
S11322B00E94D61A181664F520E030E040E251E49A
S11322C06F8D78A189A19AA10E94DA1ADC01CB0151
S11322D0BC01CD010E94201ADC01CB0198A78FA379
S11322E012C080E991E09AA789A789A59AA58C01D3
S11322F0C8010197F1F78C011AA709A78FA198A526
S1132300019798A78FA38FA198A5009751F717C09D
S11323106BA17CA18DA19EA10E94201ADC01CB019E
S113232098A78FA38FA198A59CA78BA78BA59CA5E5
S11323308C01F8013197F1F78F011CA70BA782E0FC
S11323400E94AC0080E090E0A0EAB0E48DA79EA7D4
S1132350AFA7B8AB20E030E04AE755E46DA57EA511
S11323608FA598A90E94DA1ADC01CB0189AB9AAB3C
S1132370ABABBCAB20E030E040E85FE369A97AA9ED
S11323808BA99CA90E941C1A88232CF481E090E05C
S11323909EAB8DAB42C020E03FEF4FE757E469A905
S11323A07AA98BA99CA90E94D61A181664F520E074
S11323B030E040E251E46DA57EA58FA598A90E9466
S11323C0DA1ADC01CB01BC01CD010E94201ADC0128
S11323D0CB019EAB8DAB12C080E991E098AF8FAB7F
S11323E08FA998AD8C01C8010197F1F78C0118AF42
S11323F00FAB8DA99EA901979EAB8DAB8DA99EA90C
S1132400009751F717C069A97AA98BA99CA90E94C2
S1132410201ADC01CB019EAB8DAB8DA99EA99AAF8E
S113242089AF89AD9AAD8C01F8013197F1F78F012D
S11324301AAF09AF88E00E94AC0080E090E0A0EA07
S1132440B0E48BAF9CAFADAFBEAF8E01015C1F4F4C
S113245020E030E04AE755E46BAD7CAD8DAD9EAD38
S11324600E94DA1ADC01CB01F80180839183A283F4
S1132470B383CE01CF9620E030E040E85FE3FC0177
S113248060817181828193810E941C1A88234CF49B
S1132490CE018D5B9F4F21E030E0FC01318320832E
S11324A06AC0CE01CF9620E03FEF4FE757E4FC012E
S11324B060817181828193810E94D61A18160CF072
S11324C049C020E030E040E251E46BAD7CAD8DAD1D
S11324D09EAD0E94DA1ADC01CB018E010D5B1F4F09
S11324E0BC01CD010E94201ADC01CB01F8019183CB
S11324F0808327C0CE018B5B9F4F20E931E0FC0134
S113250031832083CE018B5B9F4FFC0180819181BD
S11325108C01C8010197F1F78C01CE018B5B9F4FB1
S1132520FC0111830083CE018D5B9F4F9E012D5BC7
S11325303F4FF9012081318121503109FC01318360
S11325402083CE018D5B9F4FFC0180819181009798
S113255089F62EC08E010D5B1F4FCE01CF96FC0174
S113256060817181828193810E94201ADC01CB01F8
S1132570F80191838083CE01895B9F4F9E012D5B7F
S11325803F4FF90120813181FC0131832083CE0149
S1132590895B9F4FFC01808191818C01C801019767
S11325A0F1F78C01CE01895B9F4FFC0111830083FD
S11325B080E00E94AC009E01275B3F4F80E090E0EA
S11325C0A0EAB0E4F90180839183A283B3838E01EE
S11325D0035B1F4FCE01875B9F4F20E030E04AE74B
S11325E055E4FC0160817181828193810E94DA1A31
S11325F0DC01CB01F80180839183A283B383CE01F4
S1132600835B9F4F20E030E040E85FE3FC016081A2
S11326107181828193810E941C1A88234CF4CE011B
S11326208F5A9F4F21E030E0FC013183208370C03A
S1132630CE01835B9F4F20E03FEF4FE757E4FC015F
S113264060817181828193810E94D61A18160CF0E0
S11326504DC0CE01875B9F4F20E030E040E251E463
S1132660FC0160817181828193810E94DA1ADC010C
S1132670CB018E010F5A1F4FBC01CD010E94201ABD
S1132680DC01CB01F8019183808327C0CE018D5AF0
S11326909F4F20E931E0FC0131832083CE018D5A24
S11326A09F4FFC01808191818C01C8010197F1F752
S11326B08C01CE018D5A9F4FFC0111830083CE0102
S11326C08F5A9F4F9E012F5A3F4FF901208131812C
S11326D021503109FC0131832083CE018F5A9F4F51
S11326E0FC0180819181009789F62FC08E010F5AD9
S11326F01F4FCE01835B9F4FFC01608171818281FA
S113270093810E94201ADC01CB01F801918380831C
S1132710CE018B5A9F4F9E012F5A3F4FF9012081C2
S11327203181FC0131832083CE018B5A9F4FFC0100
S1132730808191818C01C8010197F1F78C01CE0150
S11327408B5A9F4FFC011183008388E00E94AC00E8
S11327509E01295A3F4F80E090E0A0EAB0E4F901DD
S113276080839183A283B3838E01055A1F4FCE01C8
S1132770895A9F4F20E030E04AE755E4FC0160812C
S11327807181828193810E94DA1ADC01CB01F80104
S113279080839183A283B383CE01855A9F4F20E027
S11327A030E040E85FE3FC016081718182819381C4
S11327B00E941C1A88234CF4CE01815A9F4F21E0B9
S11327C030E0FC013183208370C0CE01855A9F4FD5
S11327D020E03FEF4FE757E4FC0160817181828183
S11327E093810E94D61A18160CF04DC0CE01895A56
S11327F09F4F20E030E040E251E4FC0160817181B0
S1132800828193810E94DA1ADC01CB018E01015A84
S11328101F4FBC01CD010E94201ADC01CB01F8013D
S11328209183808327C0CE018F599F4F20E931E0E7
S1132830FC0131832083CE018F599F4FFC0180819D
S113284091818C01C8010197F1F78C01CE018F5958
S11328509F4FFC0111830083CE01815A9F4F9E013B
S1132860215A3F4FF9012081318121503109FC0166
S113287031832083CE01815A9F4FFC018081918155
S1132880009789F62FC08E01015A1F4FCE01855A39
S11328909F4FFC0160817181828193810E94201A83
S11328A0DC01CB01F80191838083CE018D599F4FC8
S11328B09E01215A3F4FF90120813181FC0131836E
S11328C02083CE018D599F4FFC01808191818C0121
S11328D0C8010197F1F78C01CE018D599F4FFC017E
S11328E01183008380E00E94AC009E012B593F4F6E
S11328F080E090E0A0EAB0E4F90180839183A283B0
S1132900B3838E0107591F4FCE018B599F4F20E08F
S113291030E04AE755E4FC01608171818281938152
S11329200E94DA1ADC01CB01F80180839183A2832F
S1132930B383CE0187599F4F20E030E040E85FE346
S1132940FC0160817181828193810E941C1A882319
S11329504CF4CE0183599F4F21E030E0FC013183D8
S1132960208370C0CE0187599F4F20E03FEF4FE78F
S113297057E4FC0160817181828193810E94D61A9F
S113298018160CF04DC0CE018B599F4F20E030E05B
S113299040E251E4FC0160817181828193810E9453
S11329A0DA1ADC01CB018E0103591F4FBC01CD01A2
S11329B00E94201ADC01CB01F8019183808327C097
S11329C0CE0181599F4F20E931E0FC0131832083FE
S11329D0CE0181599F4FFC01808191818C01C801F6
S11329E00197F1F78C01CE0181599F4FFC011183AE
S11329F00083CE0183599F4F9E0123593F4FF90114
S1132A002081318121503109FC0131832083CE01A1
S1132A1083599F4FFC0180819181009789F62FC0D3
S1132A208E0103591F4FCE0187599F4FFC016081CE
S1132A307181828193810E94201ADC01CB01F8010B
S1132A4091838083CE018F589F4F9E0123593F4F1E
S1132A50F90120813181FC0131832083CE018F581B
S1132A609F4FFC01808191818C01C8010197F1F78E
S1132A708C01CE018F589F4FFC011183008381E0AC
S1132A800E94AC009E012D583F4F80E090E0A0EAE8
S1132A90B0E4F90180839183A283B3838E01095842
S1132AA01F4FCE018D589F4F20E030E04AE755E498
S1132AB0FC0160817181828193810E94DA1ADC01B8
S1132AC0CB01F80180839183A283B383CE0189581B
S1132AD09F4F20E030E040E85FE3FC0160817181BA
S1132AE0828193810E941C1A88234CF4CE0185585C
S1132AF09F4F21E030E0FC013183208370C0CE0180
S1132B0089589F4F20E03FEF4FE757E4FC01608175
S1132B107181828193810E94D61A18160CF04DC0DF
S1132B20CE018D589F4F20E030E040E251E4FC019B
S1132B3060817181828193810E94DA1ADC01CB0168
S1132B408E0105581F4FBC01CD010E94201ADC01E3
S1132B50CB01F8019183808327C0CE0183589F4F16
S1132B6020E931E0FC0131832083CE0183589F4F5B
S1132B70FC01808191818C01C8010197F1F78C01DE
S1132B80CE0183589F4FFC0111830083CE018558E9
S1132B909F4F9E0125583F4FF901208131812150DB
S1132BA03109FC0131832083CE0185589F4FFC01FC
S1132BB080819181009789F62FC08E0105581F4F9F
S1132BC0CE0189589F4FFC0160817181828193817C
S1132BD00E94201ADC01CB01F80191838083CE018D
S1132BE081589F4F9E0125583F4FF9012081318123
S1132BF0FC0131832083CE0181589F4FFC018081E9
S1132C0091818C01C8010197F1F78C01CE018158A3
S1132C109F4FFC011183008380E00E94AC009E0161
S1132C202F573F4F80E090E0A0EAB0E4F9018083A1
S1132C309183A283B3838E010B571F4FCE018F570D
S1132C409F4F20E030E04AE755E4FC016081718148
S1132C50828193810E94DA1ADC01CB01F80180831E
S1132C609183A283B383CE018B579F4F20E030E042
S1132C7040E85FE3FC0160817181828193810E945D
S1132C801C1A88234CF4CE0187579F4F21E030E073
S1132C90FC013183208370C0CE018B579F4F20E00D
S1132CA03FEF4FE757E4FC0160817181828193819A
S1132CB00E94D61A18160CF04DC0CE018F579F4FA4
S1132CC020E030E040E251E4FC01608171818281C6
S1132CD093810E94DA1ADC01CB018E0107571F4F42
S1132CE0BC01CD010E94201ADC01CB01F8019183C3
S1132CF0808327C0CE0185579F4F20E931E0FC0136
S1132D0031832083CE0185579F4FFC0180819181BF
S1132D108C01C8010197F1F78C01CE0185579F4FB3
S1132D20FC0111830083CE0187579F4F9E012757D3
S1132D303F4FF9012081318121503109FC01318358
S1132D402083CE0187579F4FFC018081918100979A
S1132D5089F62FC08E0107571F4FCE018B579F4F07
S1132D60FC0160817181828193810E94201ADC01BF
S1132D70CB01F80191838083CE0183579F4F9E013D
S1132D8027573F4FF90120813181FC013183208392
S1132D90CE0183579F4FFC01808191818C01C80132
S1132DA00197F1F78C01CE0183579F4FFC011183EA
S1132DB0008386E00E94AC009E0121573F4F80E0D3
S1132DC090E0A0EAB0E4F90180839183A283B38305
S1132DD08E010D561F4FCE0181579F4F20E030E0EA
S1132DE04AE755E4FC0160817181828193810E94EC
S1132DF0DA1ADC01CB01F80180839183A283B383C7
S1132E00CE018D569F4F20E030E040E85FE3FC01A7
S1132E1060817181828193810E941C1A88234CF401
S1132E20CE0189569F4F21E030E0FC01318320839D
S1132E3070C0CE018D569F4F20E03FEF4FE757E41F
S1132E40FC0160817181828193810E94D61A1816D7
S1132E500CF04DC0CE0181579F4F20E030E040E29E
S1132E6051E4FC0160817181828193810E94DA1AAC
S1132E70DC01CB018E0109561F4FBC01CD010E941C
S1132E80201ADC01CB01F8019183808327C0CE0195
S1132E9087569F4F20E931E0FC0131832083CE0126
S1132EA087569F4FFC01808191818C01C801019755
S1132EB0F1F78C01CE0187569F4FFC0111830083EB
S1132EC0CE0189569F4F9E0129563F4FF90120811B
S1132ED0318121503109FC0131832083CE0189568F
S1132EE09F4FFC0180819181009789F62FC08E014C
S1132EF009561F4FCE018D569F4FFC016081718191
S1132F00828193810E94201ADC01CB01F801918314
S1132F108083CE0185569F4F9E0129563F4FF9016C
S1132F2020813181FC0131832083CE0185569F4F5E
S1132F30FC01808191818C01C8010197F1F78C011A
S1132F40CE0185569F4FFC011183008380E00E94CF
S1132F50AC009E0123563F4F80E090E0A0EAB0E42D
S1132F60F90180839183A283B3838E010F551F4F90
S1132F70CE0183569F4F20E030E04AE755E4FC0140
S1132F8060817181828193810E94DA1ADC01CB0114
S1132F90F80180839183A283B383CE018F559F4F21
S1132FA020E030E040E85FE3FC01608171818281D0
S1132FB093810E941C1A88234CF4CE018B559F4F99
S1132FC021E030E0FC013183208370C0CE018F55B5
S1132FD09F4F20E03FEF4FE757E4FC016081718190
S1132FE0828193810E94D61A18160CF04DC0CE012E
S1132FF083569F4F20E030E040E251E4FC016081C1
S11330007181828193810E94DA1ADC01CB018E01E5
S11330100B551F4FBC01CD010E94201ADC01CB01CE
S1133020F8019183808327C0CE0189559F4F20E901
S113303031E0FC0131832083CE0189559F4FFC018F
S1133040808191818C01C8010197F1F78C01CE0137
S113305089559F4FFC0111830083CE018B559F4FEF
S11330609E012B553F4FF9012081318121503109B7
S1133070FC0131832083CE018B559F4FFC0180815D
S11330809181009789F62FC08E010B551F4FCE01F9
S11330908F559F4FFC0160817181828193810E94D1
S11330A0201ADC01CB01F80191838083CE0187557E
S11330B09F4F9E012B553F4FF90120813181FC0127
S11330C031832083CE0187559F4FFC0180819181FC
S11330D08C01C8010197F1F78C01CE0187559F4FF0
S11330E0FC01118300838FE00E94AC009E012555F2
S11330F03F4F80E090E0A0EAB0E4F901808391833F
S1133100A283B3838E0101551F4FCE0185559F4F76
S113311020E030E04AE755E4FC016081718182815E
S113312093810E94DA1ADC01CB01F8018083918338
S1133130A283B383CE0181559F4F20E030E040E865
S11331405FE3FC0160817181828193810E941C1A7A
S113315088234CF4CE018D549F4F21E030E0FC01D4
S11331603183208370C0CE0181559F4F20E03FEF13
S11331704FE757E4FC0160817181828193810E9451
S1133180D61A18160CF04DC0CE0185559F4F20E07D
S113319030E040E251E4FC016081718182819381DD
S11331A00E94DA1ADC01CB018E010D541F4FBC01C1
S11331B0CD010E94201ADC01CB01F80191838083A8
S11331C027C0CE018B549F4F20E931E0FC013183AD
S11331D02083CE018B549F4FFC01808191818C010F
S11331E0C8010197F1F78C01CE018B549F4FFC016C
S11331F011830083CE018D549F4F9E012D543F4F68
S1133200F9012081318121503109FC01318320836E
S1133210CE018D549F4FFC0180819181009789F6E6
S11332202FC08E010D541F4FCE0181559F4FFC01BD
S113323060817181828193810E94201ADC01CB011B
S1133240F80191838083CE0189549F4F9E012D54B0
S11332503F4FF90120813181FC0131832083CE016C
S113326089549F4FFC01808191818C01C801019791
S1133270F1F78C01CE0189549F4FFC011183008327
S113328080E80E94AC009E0127543F4F80E090E00C
S1133290A0EAB0E4F90180839183A283B3838E0111
S11332A003541F4FCE0187549F4F20E030E04AE77C
S11332B055E4FC0160817181828193810E94DA1A54
S11332C0DC01CB01F80180839183A283B383CE0117
S11332D083549F4F20E030E040E85FE3FC016081CD
S11332E07181828193810E941C1A88234CF4CE013F
S11332F08F539F4F21E030E0FC013183208370C065
S1133300CE0183549F4F20E03FEF4FE757E4FC0189
S113331060817181828193810E94D61A18160CF003
S11333204DC0CE0187549F4F20E030E040E251E48D
S1133330FC0160817181828193810E94DA1ADC012F
S1133340CB018E010F531F4FBC01CD010E94201AE7
S1133350DC01CB01F8019183808327C0CE018D531A
S11333609F4F20E931E0FC0131832083CE018D534E
S11333709F4FFC01808191818C01C8010197F1F775
S11333808C01CE018D539F4FFC0111830083CE012C
S11333908F539F4F9E012F533F4FF901208131815D
S11333A021503109FC0131832083CE018F539F4F7B
S11333B0FC0180819181009789F62FC08E010F5303
S11333C01F4FCE0183549F4FFC0160817181828124
S11333D093810E94201ADC01CB01F8019183808340
S11333E0CE018B539F4F9E012F533F4FF9012081F4
S11333F03181FC0131832083CE018B539F4FFC012B
S1133400808191818C01C8010197F1F78C01CE0173
S11334108B539F4FFC011183008380E00E94AC001A
S1133420CA53DF4F0FB6F894DEBF0FBECDBFDF9196
S1133430CF911F910F9108956CD008F481E0089505
S113344094D088F09F5790F0B92F9927B751A0F0E6
S1133450D1F0660F771F881F991F1AF0BA95C9F724
S113346012C0B13081F09BD0B1E0089598C0672FAD
S1133470782F8827B85F39F0B93FCCF386957795D4
S11334806795B395D9F73EF49095809570956195BD
S11334907F4F8F4F9F4F0895E89409C097FB3EF4E8
S11334A090958095709561957F4F8F4F9F4F99238D
S11334B0A9F0F92F96E9BB279395F695879577950B
S11334C06795B795F111F8CFFAF4BB0F11F460FFCB
S11334D01BC06F5F7F4F8F4F9F4F16C0882311F023
S11334E096E911C0772321F09EE8872F762F05C037
S11334F0662371F096E8862F70E060E02AF09A95D2
S1133500660F771F881FDAF7880F9695879597F9C6
S11335100895990F0008550FAA0BE0E8FEEF161660
S11335201706E807F907C0F012161306E407F507B3
S113353098F0621B730B840B950B39F40A2661F027
S1133540232B242B252B21F408950A2609F4A140CA
S1133550A6958FEF811D811D089557FD9058440F46
S1133560551F59F05F3F71F04795880F97FB991FDE
S113357061F09F3F79F0879508951216130614069B
S1133580551FF2CF4695F1DF08C016161706180628
S1133590991FF1CF86957105610508940895E89403
S11335A0BB2766277727CB0197F90895B2DF08F484
S11335B08FEF08950BD078C069D028F06ED018F042
S11335C0952309F05AC05FC01124EACFC6DFA0F3E7
S11335D0959FD1F3950F50E0551F629FF001729FA4
S11335E0BB27F00DB11D639FAA27F00DB11DAA1FC3
S11335F0649F6627B00DA11D661F829F2227B00D10
S1133600A11D621F739FB00DA11D621F839FA00D9A
S1133610611D221F749F3327A00D611D231F849FEA
S1133620600D211D822F762F6A2F11249F57504041
S11336308AF0E1F088234AF0EE0FFF1FBB1F661FDC
S1133640771F881F91505040A9F79E3F510570F095
S113365014C0A6CF5F3FECF3983EDCF386957795D4
S11336606795B795F795E7959F5FC1F7FE2B880F90
S1133670911D9695879597F9089597F99F6780E826
S113368070E060E008959FEF80EC089500240A94B0
S11336901616170618060906089500240A94121629
S11336A01306140605060895092E0394000C11F45C
S11336B0882352F0BB0F40F4BF2B11F460FF04C009
S11336C06F5F7F4F8F4F9F4F08958F929F92AF925E
S11336D0BF92CF92DF92EF92FF92CF93DF93EC01F0
S11336E0688179818A819B816115710581059105C4
S11336F021F464E279ED8BE597E02DE133EF41E0CD
S113370050E00E942B1C49015A019B01AC01A7EA1D
S1133710B1E40E94471C6B017C01ACEEB4EFA5013F
S113372094010E94551CC60ED71EE81EF91EF7FE12
S113373006C081E0C81AD108E10880E8F80AC88206
S1133740D982EA82FB82E894D7F8EE24FF24C601EA
S1133750DF91CF91FF90EF90DF90CF90BF90AF902B
S11337609F908F9008950E94651B089580E690E0D5
S11337700E94651B0895A0E0B0E0809360009093E0
S11337806100A0936200B09363000895FB01DC0123
S11337900D900020E9F7119701900D920020E1F7B8
S11337A00895FB019F01E8944230C4F04532B4F41B
S11337B04A3029F497FB1EF4909581959F4F642F0E
S11337C077270E94171C805D8A330CF0895D8193F2
S11337D0CB010097A1F716F45DE251931082C90161
S11337E00C94071CE199FECF9FBB8EBBE09A9927EE
S11337F08DB30895262FE199FECF9FBB8EBB2DBBC1
S11338000FB6F894E29AE19A0FBE01960895DC018E
S1133810FC01672F71917723E1F7329704C07C9103
S11338206D9370836291AE17BF07C8F30895AA1B06
S1133830BB1B51E107C0AA1FBB1FA617B70710F097
S1133840A61BB70B881F991F5A95A9F780959095C9
S1133850BC01CD010895052E97FB16F4009407D002
S113386057FD0DD00E945A1C07FC09D07EF4909598
S11338708095709561957F4F8F4F9F4F0895509518
S11338804095309521953F4F4F4F5F4F08950E94CB
S11338907C1CA59F900DB49F900DA49F800D911D3D
S11338A011240895B7FF0C94471C0E94471C821BE7
S11338B0930B0895A1E21A2EAA1BBB1BFD010DC098
S11338C0AA1FBB1FEE1FFF1FA217B307E407F507CC
S11338D020F0A21BB30BE40BF50B661F771F881FA8
S11338E0991F1A9469F760957095809590959B013E
S11338F0AC01BD01CF010895A29FB001B39FC001E7
S1133900A39F01D0B29F700D811D1124911D0895B4
S1073910F894FFCF55
S11339140100000010035A646F6279B33A20000076
S113392400000000000000000000E80301002E2055
S1133934414E4F4E494D203A20300000312E205242
S11339446F7A706F637A6E696A0050555320766596
S11339547220312E30204D454E553A00322E204EE1
S1133964616A6C6570736900005055532076657202
S113397420312E30204D454E553A0000332E204F31
S113398470636A6500004E616A6C657073692067D0
S11339947261637A653A006C6576656C3A20656198
S11339A47379004F70636A653A006C6576656C3AA6
S11339B420484152440050727A656772616E6120F6
S10B39C470756E6B74793A0012
S9030000FC
