S01700004763634170706C69636174696F6E312E737265635B
S11300000C942A000C9447000C9447000C9447006D
S11300100C9447000C9447000C9447000C94470040
S11300200C9447000C9447000C9447000C94470030
S11300300C9447000C9447000C9447000C94470020
S11300400C9447000C9447000C9447000C94470010
S11300500C94470011241FBECFE5D8E0DEBFCDBF0E
S113006010E0A0E6B0E0E8EDF1E002C005900D92EA
S1130070A036B107D9F710E0A0E6B0E001C01D92A8
S1130080A036B107E1F70E94E7000C94EA000C9453
S113009000009BB382958F70907F892B8BBB089552
S11300A09BB38F70907F892B8BBB0895CF93C82F00
S11300B0DF9ADE9ADE980E944900DE9ADE988C2F41
S11300C00E945000DE98DE98CF9108959BB31BBA2E
S11300D09BB39F6098239BBBDE9A0895CF93DF93D5
S11300E0EC0102C00E94560089918823D9F7DF9160
S11300F0CF9108958FE59AEE0197F1F700C00000C3
S113010083E00E9466008FE79EE30197F1F700C049
S1130110000083E00E9466008FE79EE30197F1F7F9
S113012000C0000083E00E9466008FE79EE3019711
S1130130F1F700C0000082E00E9466008FE19EE4B7
S11301400197F1F700C0000082E00E9466008FE191
S11301509EE40197F1F700C0000088E00E94660069
S11301608FE19EE40197F1F700C0000080E00E9457
S113017066008FE19EE40197F1F700C0000088E07B
S11301800E9466008FE19EE40197F1F700C0000031
S113019080E00E9466008FE19EE40197F1F700C0C1
S11301A0000081E00E9466008FE19EE40197F1F770
S11301B000C0000080E00E9466008FE19EE4019789
S11301C0F1F700C0000087E00E94660008950E94D5
S10B01D07A00FDCFF894FFCF83
S9030000FC
